S0120000526F626F744E6F4153462E7372656375
S214400000E81300203D434000C1434000C143400048
S214400010C1434000C1434000C143400000000000CF
S214400020000000000000000000000000C143400047
S214400030C143400000000000C1434000C1434000AF
S214400040C1434000C1434000C1434000C14340005B
S214400050C1434000C1434000C1434000000000008F
S214400060C1434000C1434000C1434000C14340003B
S214400070C1434000C1434000C1434000C14340002B
S21440008001044000C143400000000000C14340005E
S214400090C1434000C1434000C1434000C53E40000C
S2144000A0C1434000C1434000C1434000C1434000FB
S2144000B0C1434000C1434000C1434000C1434000EB
S2144000C010B5054C237833B9044B13B10448AFF34D
S2144000D000800123237010BD78040020000000003B
S2144000E0747D4000084B10B51BB108490848AFF373
S2144000F000800848036803B910BD074B002BFBD0AF
S214400100BDE81040184700BF000000007C040020F7
S214400110747D4000747D40000000000080B483B0D1
S21440012000AF0346FB71084997F907305B09FA7937
S21440013002F01F02012000FA02F241F8232000BF1D
S2144001400C37BD4680BC704700E100E090B597B0E4
S21440015002AF3B1D83E807007B68FB643B7A87F869
S2144001604B30FB687B6497F84B30012B14D0102B38
S21440017032D0002B00D030E000233B7407F1100251
S2144001800123009313464FF6FE724FF6FF704FF072
S2144001900001144CA04720E00E20134B984703461E
S2144001A0A7F8423001233B74B7F842301B0A9BB293
S2144001B0DBB27B74B7F84230DBB2BB7407F1100297
S2144001C00323009313464FF6FE724FF6FF704FF030
S2144001D00001044CA04700E000BF00BF5437BD46B6
S2144001E090BD00BF1D0740008D3F400080B58AB0DF
S2144001F000AF3B1D83E807007B683B623B7AFB779A
S214400200FB68BB61FB7F883B1B2B00F29A8001A2F8
S21440021052F823F0430340004303400043034000AA
S2144002204303400043034000430340004303400071
S2144002304303400085024000430340004303400020
S2144002404303400043034000430340004303400051
S2144002504303400043034000430340004303400041
S2144002604303400043034000430340004303400031
S2144002704303400043034000430340004303400021
S21440028043034000324A3B6A136007F1170318469F
S214400290304B984707F1170318462E4B984707F1FF
S2144002A0170318462B4B984707F117031846294B58
S2144002B0984707F117031846264B984707F1170348
S2144002C01846244B984707F117031846214B984782
S2144002D007F1170318461F4B984707F117031846B0
S2144002E01C4B984707F1170318461A4B984707F1D7
S2144002F017031846174B984707F117031846154B30
S21440030098470346002B1ED1134B1B68F97D0122EC
S2144003101846124B984701237B620BE007F1170300
S21440032018460C4B9847FB7D18460D4B98477B6A02
S21440033001337B62BB69A3F10C027B6A9A42EDDA19
S21440034001E000BF00E000BF00BF2837BD4680BDCB
S214400350900F00202D094000D4040020FD0B4000E3
S214400360450B400080B500AF1A4A1A4B1B6843F451
S21440037080331360184A184B1B6843F4406313607D
S214400380164A164B1B6843F400631360144B40F246
S2144003908B221A60134A134B1B6843F48673136010
S2144003A0104A104B1B6843F0500313600E4A0E4B26
S2144003B01B6843F00103136010200C4B98470C4B0E
S2144003C098470C4B98470C4B98470C4B984700BFA8
S2144003D080BD00BF10040E4004100E400480044050
S2144003E02080044000800440088004401D014000F6
S2144003F0750840009D094000190B4000D10B400095
S21440040080B582B000AF5B4B1B68012B40F0AD80DF
S214400410594B1B68FB71FB797E2B07D1574B1B78DA
S214400420002B03D0554B00221A7011E0FB797D2B30
S21440043003D1534B01221A700AE0514B1B78002B14
S21440044006D0FB7983F02003FB714D4B00221A70D7
S2144004504B4B1B7883F00103DBB2002B00F085800A
S214400460464B1B78052B00F2808001A252F823F001
S21440047089044000A9044000B9044000C704400075
S214400480F304400025054000FB797E2B68D13B4BAA
S21440049001221A703B4B00221A603B4B00221A6026
S2144004A03A4B00221A605BE0FB791B02354A136028
S2144004B0324B02221A7058E0FB79324A13602F4BB7
S2144004C003221A7051E0FB79314A1360FA792F4BB8
S2144004D01B6813442D4A13602B4B1B6801332A4A72
S2144004E013602C4B1B682C4A1360244B04221A7052
S2144004F03BE0FB791846294B9847FA79234B1B6813
S2144005001344224A1360204B1B6801331E4A136073
S2144005101D4B1A681B4B1B689A4223D1174B05226A
S2144005201A701FE0FA79194B1B681344174A136078
S214400530164B1B68DBB2154A1360144B1B68FF2B27
S21440054012D10E4B00221A70134B1868104B1B68C2
S214400550D9B20D4B1B68013B1A46114B984703E036
S21440056000BF02E000BF00E000BF00BF0837BD4646
S21440057080BD00BF108004401880044094040020D2
S21440058095040020980400209C040020A00400202D
S214400590A40400209C0F0020A8040020A1084000CE
S2144005A0C909400080B483B000AF0346FB7100BF6A
S2144005B0064B1B6803F00203002BF9D0044AFB7974
S2144005C0136000BF0C37BD4680BC704714800440A3
S2144005D01C8004402DE9F0438BB000AF7860396052
S2144005E06A4691463A687A837A8B02F1040808F1A3
S2144005F0FF327A61424611464FF00002D60046EA84
S2144006005176CD00424611464FF00002D40044EAEF
S2144006105174CB0043460733DB08DB00ADEB030DDC
S2144006206B4600333B61002387F827303B697E22C8
S2144006301A707B8BDB099BB2DAB23B695A707B8BB4
S214400640DAB23B699A703B6903337A8B796818460D
S214400650304B984700233B620BE03B6A7A68134472
S2144006601A7897F82730134487F827303B6A0133C7
S2144006703B627A8B3B6A9A42EFDC7B8B033397F87C
S2144006802720D243D1B23A69D1544346FB733B69E3
S2144006901B781846204B98470123FB612FE03A69A8
S2144006A0FB6913441B787E2B11D03A69FB691344CF
S2144006B01B787D2B0BD03A69FB6913441B78112BB2
S2144006C005D03A69FB6913441B78132B0DD17D2066
S2144006D0114B98473A69FB6913441B7883F0200313
S2144006E0DBB218460C4B984706E03A69FB69134460
S2144006F01B781846084B9847FB690133FB61FA7B29
S214400700FB699A42CBDCCD4600BF2C37BD46BDE8E0
S214400710F08300BF056A4000A50540002DE9F04F74
S21440072095B000AFC7E91001BB631346FB876B4625
S2144007307B6097F8783003F10E02531EFB64134635
S2144007404FF00004E60046EA5376DD0013464FF0CD
S21440075000044FEAC40949EA53794FEAC3081346EE
S2144007600733DB08DB00ADEB030D6B460033BB64A1
S214400770BA6C10231370BA6C96235370D7E91034B2
S214400780220E3A6200227A6297F82030BA6C937052
S214400790D7E91034220CBA610022FA613A7EBB6C6B
S2144007A0DA70D7E91034220A3A6100227A613A7C3C
S2144007B0BB6C1A71D7E910342200BA600022FA6086
S2144007C03A7ABB6C5A71D7E910341A0E3A633A6BD0
S2144007D042EA04223A63220E7A6397F83020BB6CD2
S2144007E09A71D7E910341A0CBA62BA6A42EA0442DD
S2144007F0BA62220CFA6297F82820BB6CDA71D7E905
S21440080010344FEA132A4AEA046A4FEA142B5FFA76
S2144008108AF2BB6C1A7297F84020BB6C5A72FB8FF8
S2144008201B0A9BB2DAB2BB6C9A72FB8FDAB2BB6C15
S214400830DA72BB6C00221A73BB6C00225A73BB6C14
S2144008400E3397F87820B96B1846084B9847BA6C21
S21440085097F878300E3319461046054B9847D7F828
S21440086004D000BF5437BD46BDE8F08F056A40004F
S214400870D505400080B400AF064B00221A60054BF9
S2144008801B68054A1360054B00221A6000BFBD4630
S21440089080BC7047900F00209C0F0020A00F0020C7
S2144008A080B483B000AF0346FB711B4B1B6803F557
S2144008B07A721A4B83FB02131912D317CB1A40F2E3
S2144008C0E93101FB03F3D31A154A1268934202D169
S2144008D04FF0FF331AE0124B1B681249FA79CA549C
S2144008E00F4B1B685A1C0D4B83FB02131912D31770
S2144008F0CB1A40F2E93101FB03F3D31A084A1360DE
S214400900094B1B680133084A1360002318460C370E
S214400910BD4680BC704700BF900F00209F74784152
S2144009209C0F0020DC040020A00F002080B483B081
S21440093000AF7860144B1A68144B1B689A4202D179
S2144009404FF0FF331BE0114B1B68114AD25C7B68AB
S2144009501A700E4B1B685A1C0E4B83FB021319125F
S214400960D317CB1A40F2E93101FB03F3D31A074AF7
S2144009701360094B1B68013B074A13600023184667
S2144009800C37BD4680BC70479C0F0020900F00205F
S214400990DC0400209F747841A00F002080B400AF94
S2144009A0064B00221A60054B1B68054A1360054B30
S2144009B000221A6000BFBD4680BC7047980F0020DA
S2144009C0940F0020CC04002090B484B000AFF860B0
S2144009D00B467A60FB722A4B1B6803F13202294BA6
S2144009E082FB033413195911D317C91A0B465B00FF
S2144009F00B4419010B44D11A234B1B68994202D170
S214400A004FF0FF3337E0204B1A68204913465B000F
S214400A1013449B000B44FA681A601B4B1A681B4928
S214400A2013465B0013449B000B440433FA7A1A7057
S214400A30154B1A68154913465B0013449B000B443C
S214400A4008337A681A60104B1B685A1C0D4B82FBA1
S214400A50033413195911D317C91A0B465B000B44BC
S214400A6019010B44D11A084B1960094B1B68013316
S214400A70074A1360002318461037BD4690BC70479F
S214400A80980F0020A1A0A0A0940F0020C808002026
S214400A90CC04002090B482B000AF7860194B1A683E
S214400AA0194B1B689A4202D14FF0FF3324E0164B95
S214400AB01A687868154913465B0013449B00CA18A9
S214400AC0034607CA83E807000F4B1B685A1C104BA7
S214400AD082FB033413195911D317C91A0B465B000E
S214400AE00B4419010B44D11A074B1960094B1B687C
S214400AF0013B084A1360002318460837BD4690BCA1
S214400B00704700BF940F0020980F0020C8080020B0
S214400B10A1A0A0A0CC04002080B400AF064B0022C9
S214400B201A60054B1B68054A1360054B00221A6085
S214400B3000BFBD4680BC7047300B0020D404002068
S214400B40D004002080B483B000AF0346FB711B4B3B
S214400B501B6803F5FA721A4B83FB02139911D317DD
S214400B60CB1A40F2F51101FB03F3D31A154A12686B
S214400B70934202D14FF0FF331AE0124B1B681249E2
S214400B80FA79CA540F4B1B685A1C0D4B83FB021351
S214400B909911D317CB1A40F2F51101FB03F3D31A80
S214400BA0084A1360094B1B680133084A1360002348
S214400BB018460C37BD4680BC704700BF300B00203F
S214400BC041DDB320D4040020980D0020D00400203E
S214400BD080B400AF064B00221A60054B1B68054ADE
S214400BE01360054B00221A6000BFBD4680BC7047AC
S214400BF0D80400202C0B0020C804002090B484B0F9
S214400C0000AFF8600B467A60FB722A4B1B6803F114
S214400C103202294B82FB033413195911D317C91AD0
S214400C200B465B000B4419010B44D11A234B1B683F
S214400C30994202D14FF0FF3337E0204B1A682049E3
S214400C4013465B0013449B000B44FA681A601B4B28
S214400C501A681B4913465B0013449B000B4404333D
S214400C60FA7A1A70154B1A68154913465B001344F6
S214400C709B000B4408337A681A60104B1B685A1C5A
S214400C800D4B82FB033413195911D317C91A0B465F
S214400C905B000B4419010B44D11A084B1960094BF1
S214400CA01B680133074A1360002318461037BD46B9
S214400CB090BC7047D8040020A1A0A0A02C0B002018
S214400CC0340B0020C804002090B482B000AF786097
S214400CD0194B1A68194B1B689A4202D14FF0FF33E2
S214400CE024E0164B1A687868154913465B0013448F
S214400CF09B00CA18034607CA83E807000F4B1B68C9
S214400D005A1C104B82FB033413195911D317C91AB6
S214400D100B465B000B4419010B44D11A074B196074
S214400D20094B1B68013B084A1360002318460837E6
S214400D30BD4690BC704700BF2C0B0020D804002056
S214400D40340B0020A1A0A0A0C804002080B483B02B
S214400D5000AF7860002318460C37BD4680BC70470D
S214400D6090B585B000AF0346FB71294B93F824300D
S214400D70002B1CD0FB79002B02D00223FB7301E032
S214400D800023FB73224B5B681878214B1B68597C09
S214400D9007F10F0301221F4CA0470346002B02D049
S214400DA04FF0FF3330E0FA7B194B5A742BE0184B68
S214400DB09B7A002B02D14FF0FF3325E0FB79002BC6
S214400DC005D0134B5B7C002B01D000231CE0FB7945
S214400DD0002B02D00123FB7301E00023FB730C4B76
S214400DE05B6818780A4B1B68597C07F10F03012291
S214400DF0084CA0470346002B02D04FF0FF3303E0D9
S214400E00FA7B034B5A74002318461437BD4690BDF0
S214400E1000000020293D400090B585B000AF7860C6
S214400E2080233B725F4B5B6818785E4B1B68597D2E
S214400E3007F1080301225C4CA0470346002B02D072
S214400E404FF0FF33A9E06420584B984700233B728D
S214400E50544B5B681878534B1B68597D07F1080361
S214400E600122514CA0470346002B02D04FF0FF33DF
S214400E7093E04C4B0022DA7448233B72494B5B6844
S214400E801878484B1B68197A07F108030122464C2C
S214400E90A0470346002B02D04FF0FF337DE0414B86
S214400EA0FF229A723F4BFF221A723E4BFF225A7223
S214400EB03C4BFF22DA723B4B4FF6FF72DA81394BDE
S214400EC0FF221A74374BFF229A74364B4FF6FF7246
S214400ED01A85344B01221A73324B012283F82220A2
S214400EE0304B002283F823202E4B00225A752D4B80
S214400EF000221A750C2200212D482E4B9847294B6C
S214400F00002283F82420274B002283F82520254BF7
S214400F100022DA844FF4FA60274B98470346002BAA
S214400F2002D04FF0FF3338E00220244B9847034668
S214400F30002B02D04FF0FF332FE02A20204B98475B
S214400F400346002B02D04FF0FF3326E032201D4BE5
S214400F5098470346002B02D04FF0FF331DE0002099
S214400F60194B98470346002B02D04FF0FF3314E04E
S214400F707B68002B02D07868144B9847144B9847F0
S214400F800A20144B98470346002B02D04FF0FF33FD
S214400F9003E00020104B9847002318461437BD4600
S214400FA090BD00BF00000020293D4000F93C4000B5
S214400FB016000020396B400091134000AD144000ED
S214400FC08115400051164000C51740004D0D4000A9
S214400FD081204000411740007118400090B585B010
S214400FE000AF0346FB71FB79282B02D94FF0FF3345
S214400FF085E0FB79002B1CD10020434B984700230B
S2144010003B7307237B73414B5B6818783F4B1B68E9
S214401010597D07F10C0302223D4CA0470346002BA6
S21440102002D04FF0FF336AE0384B00221A75002397
S21440103065E00120344B9847FB79012B02D102230F
S2144010403B732BE0FB79022B02D103233B7325E055
S214401050FB79052B02D804233B731FE0FB790A2B50
S21440106002D805233B7319E0FB79142B02D80623DC
S2144010703B7313E0FB79282B02D807233B730DE024
S214401080FB79502B02D808233B7307E0FB79A02B53
S21440109002D809233B7301E00A233B731B4B5B6872
S2144010A018781A4B1B68597A07F10C030122184C22
S2144010B0A0470346002B02D04FF0FF331FE020230B
S2144010C03B73124B5B681878104B1B68597D07F1D1
S2144010D00C0301220E4CA0470346002B02D04FF0D3
S2144010E0FF330CE0094B08229A72084B00221A7311
S2144010F0064B01221A750020064B984700231846D7
S2144011001437BD4690BD00BFD91C400000000020EB
S214401110293D4000C517400090B583B000AF7E4BD8
S2144011209B7A002B02D14FF0FF33F1E00023FB7196
S214401130794B5B681878784B1B68597CFB1D0122FD
S214401140764CA0470346002B02D04FF0FF33DFE03B
S214401150714B5B681878704B1B685979FB1D0122F0
S2144011606E4CA0470346002B02D04FF0FF33CFE033
S214401170694B5B681878684B1B681979FB1D012220
S214401180664CA0470346002B02D04FF0FF33BFE02B
S214401190614B93F82430002B5CD00C23FB715E4BE4
S2144011A05B6818785C4B1B681979FB1D01225B4C09
S2144011B0A0470346002B02D04FF0FF33A8E0322072
S2144011C0574B9847C023FB71534B9B7A03F0010360
S2144011D0002B04D0FB7943F02003DBB2FB714E4B6F
S2144011E05B6818784C4B1B681979FB1D01224B4CE9
S2144011F0A0470346002B02D04FF0FF3388E0464B13
S2144012005B7C002B02D00223FB7101E00023FB71C4
S214401210414B5B681878404B1B68597CFB1D01228C
S2144012203E4CA0470346002B02D04FF0FF336FE002
S2144012300023FB71384B5B681878374B1B6859792D
S214401240FB1D0122354CA0470346002B5FD04FF0D4
S214401250FF335DE00423FB712F4B5B6818782E4B01
S2144012601B681979FB1D01222C4CA0470346002B16
S21440127002D04FF0FF334BE0274B9B7C002B05D131
S214401280254B9B7A03F00103002B02D14023FB71D0
S21440129001E06023FB71204B5B6818781E4B1B688F
S2144012A01979FB1D01221D4CA0470346002B02D096
S2144012B04FF0FF332CE03220194B9847164B5B7C9F
S2144012C0002B02D00123FB7101E00023FB71124B7F
S2144012D05B681878104B1B68597CFB1D01220F4C2D
S2144012E0A0470346002B02D04FF0FF3310E00A4BD6
S2144012F05B681878084B1B6859790A4B0122074CE3
S214401300A0470346002B02D04FF0FF3300E00023F7
S21440131018460C37BD4690BD00000020293D4000D1
S214401320F93C40001000002080B483B000AF7860E5
S214401330164B1B7A032B1ED801A252F823F000BF8F
S2144013405113400059134000631340006D13400092
S2144013507B68FA221A8012E07B684FF4FA721A8091
S2144013600DE07B684FF47A721A8008E07B684FF491
S214401370FA621A8003E07B6800221A8000BF0023CE
S21440138018460C37BD4680BC704700BF00000020A2
S21440139090B585B000AF0346FB80254B9B7A002B6B
S2144013A002D14FF0FF333FE0FB88B3F5FA7F0FD012
S2144013B0B3F5FA7F02DCFA2B07D012E0B3F57A7F5A
S2144013C009D0B3F5FA6F09D00BE00023FB730BE0AE
S2144013D00823FB7308E01023FB7305E01823FB7318
S2144013E002E04FF0FF331FE0114B1A7AFB7BDB081D
S2144013F0DBB29A4201D1002316E00D4B5B681878A9
S2144014000B4B1B68997907F10F030122094CA04743
S2144014100346002B02D04FF0FF3305E0FB7BDB0892
S214401420DAB2034B1A72002318461437BD4690BDF5
S21440143000000020293D400080B483B000AF7860B3
S214401440194B5B7A032B1BD801A252F823F000BF3E
S2144014506114400069144000711440007914400043
S2144014607B6802221A700EE07B6804221A700AE03B
S2144014707B6808221A7006E07B6810221A7002E029
S2144014804FF0FF330AE0084BDB7C002B05D07B682F
S2144014901B785B00DAB27B681A70002318460C375C
S2144014A0BD4680BC704700BF0000002090B585B0A8
S2144014B000AF0346FB71304B9B7A002B02D14FF0B6
S2144014C0FF3354E0FB79023B0E2B2DD801A252F895
S2144014D023F000BF111540002915400017154000A5
S2144014E02915400029154000291540001D154000CB
S2144014F029154000291540002915400029154000AF
S21440150029154000291540002915400023154000A4
S2144015100023FB730BE00823FB7308E01023FB73E8
S21440152005E01823FB7302E04FF0FF331FE0124B39
S2144015305A7AFB7BDB08DBB29A4201D1002316E0E5
S2144015400D4B5B6818780C4B1B68D97907F10F0375
S21440155001220A4CA0470346002B02D04FF0FF332F
S21440156005E0FB7BDB08DAB2034B5A7200231846D1
S2144015701437BD4690BD00BF00000020293D400006
S21440158090B585B000AF0346FB80234B9B7A002B7B
S21440159002D14FF0FF333BE0FB88BB2B02D901233F
S2144015A0FB7319E0FB88612B02D90223FB7313E01F
S2144015B0FB88292B02D90323FB730DE0FB88132BF2
S2144015C002D90423FB7307E0FB88092B02D90523C5
S2144015D0FB7301E00623FB730F4BDA7AFB7B9A42E0
S2144015E001D1002314E00C4B5B6818780A4B1B684B
S2144015F0997807F10F030122084CA0470346002BB9
S21440160002D04FF0FF3303E0FA7B034BDA7200233D
S21440161018461437BD4690BD00000020293D4000C6
S21440162080B483B000AF7860084B93F82430002B2A
S21440163002D04FF0FF3304E0044BDA897B681A800F
S214401640002318460C37BD4680BC7047000000207B
S21440165090B585B000AF0346FB80344B9B7A002B99
S21440166002D14FF0FF335CE0304B93F82430002B30
S21440167002D04FF0FF3354E02C4B1B7D002B0FD095
S214401680FB88002B09D0FB88282B06D8FB88DBB2CA
S2144016901846274B9847002343E00020244B9847A2
S2144016A0FB88032B02D80423FB8006E0FB88B3F5B7
S2144016B07A7F02D94FF47A73FB80FB884FF47A72B4
S2144016C092FBF3F3DBB2013BDBB2FB73174B5B6879
S2144016D01878164B1B68597807F10F030122154CF2
S2144016E0A0470346002B02D04FF0FF3319E0FB7BA8
S2144016F001334FF47A7292FBF3F39AB20B4BDA81D2
S2144017000A4B1B8D642B28BF64239BB218460A4B9A
S2144017109847064BDB895B089BB21846074B9847B1
S214401720002318461437BD4690BD00BF0000002079
S214401730DD0F4000293D4000411740008115400024
S21440174090B585B000AF0346FB80FB88002B07D0E2
S2144017501A4BDB89FA889A4202D8FB88642B02D956
S2144017604FF0FF3326E0154BDA89FB88B2FBF3F3E4
S2144017709BB2DBB2013BDBB2FB73104B5B68187865
S2144017800E4B1B6893F8241007F10F0301220C4CF4
S214401790A0470346002B02D04FF0FF330AE0074B2A
S2144017A0DB891A46FB7B013392FBF3F39AB2034B79
S2144017B01A85002318461437BD4690BD0000002009
S2144017C0293D400080B584B000AF0346FB7100233E
S2144017D0FB60FB7923F00103FB71224B93F8243026
S2144017E0002B01D0002338E01E4B9B7A002B02D101
S2144017F04FF0FF3331E01B4B1B7CFB72194B9A7A40
S214401800FB791340DAB2174B1A74164B1B7CFA79E5
S2144018109A4203D04FF0FF33FB6001E00023FB60A9
S214401820FB79002B03D10F4B1B7D002B03D00120EF
S2144018300D4B984702E000200B4B9847FB79002B56
S2144018400AD00A4B98470346002B05D0054AFB7A38
S21440185013744FF0FF3300E0FB6818461037BD4660
S21440186080BD00BF00000020610D400019114000FF
S21440187090B585B000AF0346FB71FB7903F070036B
S214401880002B02D00123FB7307E0FB79002B02D02C
S2144018900023FB7301E04023FB73634B5B681878BF
S2144018A0614B1B68597D07F10F0301225F4CA0472F
S2144018B00346002B05D05C4B00229A724FF0FF3354
S2144018C0AEE0FB7B23F04003DAB2574B1A7300239B
S2144018D0FB73FB7903F04003002B04D1FB7B43F002
S2144018E00403DBB2FB73FB7903F02003002B04D127
S2144018F0FB7B43F00203DBB2FB73FB7903F0100380
S214401900002B04D1FB7B43F00103DBB2FB73FB7976
S21440191003F00803002B04D1FB7B43F03803DBB213
S214401920FB73414B5B6818783F4B1B68997D07F10A
S2144019300F0301223D4CA0470346002B05D03A4BEF
S21440194000229A724FF0FF336AE0FB79002B05D0F5
S214401950FB79082B02D00020354B9847324B5B680A
S2144019601878314B1B68197907F10E030122314C68
S214401970A0470346002B02D04FF0FF3350E0FB79E0
S21440198003F00103002B07D01123FB73BB7B43F00E
S2144019902003DBB2BB7306E01023FB73BB7B23F054
S2144019A02003DBB2BB73204B93F82430002B05D0CA
S2144019B0BB7B63F07F03DBB2BB7304E0BB7B03F00F
S2144019C07F03DBB2BB73184B5B681878164B1B68FB
S2144019D093F8261007F10F030122144CA047034644
S2144019E0002B02D04FF0FF331AE00F4B5B6818789D
S2144019F00D4B1B68197907F10E0301220B4CA047CB
S214401A000346002B02D04FF0FF3309E0064AFB792D
S214401A109372054B00221A753220074B98470023D5
S214401A2018461437BD4690BD00000020293D4000B2
S214401A30D91C4000E53D4000F93C400090B587B0D9
S214401A4000AF0346B9607A60FB813A4B93F8243086
S214401A50002B02D14FF0FF3368E0364B9B7A002BC9
S214401A6002D14FF0FF3361E0324B5B681878314B60
S214401A701B68197B07F1140302222F4CA04703462C
S214401A80002B02D04FF0FF3350E03B7D1B021AB2D2
S214401A907B7D1BB213431BB2FB82FA8AFB899A42B8
S214401AA005D27B6800221A704FF0FF333EE0214B90
S214401AB05B685B885B089BB2FA8A9A421AD91D4BD0
S214401AC05B6818781B4B1B68D97C07F1140301220E
S214401AD0194CA0470346002B02D04FF0FF3325E0B9
S214401AE03B7D03F01003002B04D0144B98476FF057
S214401AF001031BE00F4B5B6818780E4B1B68597B45
S214401B00FB89DAB2BB680C4CA0470346002B02D0D8
S214401B104FF0FF330AE0FA8AFB89B2FBF3F39BB23D
S214401B20DBB2013BDAB27B681A70002318461C37DA
S214401B30BD4690BD00000020E53D40001911400024
S214401B4090B585B000AF0346FB715F4B9B7CFA793E
S214401B509A4201D10023B2E0FB79002B50D05A4B79
S214401B605B681878584B1B68197907F10F030122F8
S214401B70564CA0470346002B02D04FF0FF339EE062
S214401B80FB7B23F02003DBB2FB734F4B5B6818787C
S214401B904D4B1B68197907F10F0301224C4CA047A7
S214401BA00346002B02D04FF0FF3388E00320494B1A
S214401BB098470223FB73444B93F82230002B04D003
S214401BC0FB7B63F07F03DBB2FB733F4B93F8233022
S214401BD0002B04D0FB7B43F03003DBB2FB733A4B65
S214401BE05B681878384B1B68D97D07F10F030122D4
S214401BF0374CA0470346002B5DD04FF0FF335EE0E6
S214401C00314B5B681878304B1B68197907F10F0326
S214401C1001222E4CA0470346002B02D04FF0FF3344
S214401C204DE0294B9B7A03F00103002B05D0FB7B4C
S214401C3043F02003DBB2FB7304E0FB7B23F020037E
S214401C40DBB2FB73204B5B6818781F4B1B68197917
S214401C5007F10F0301221E4CA0470346002B02D07B
S214401C604FF0FF332BE003201A4B9847164B93F860
S214401C702230002B02D08023FB7301E00023FB734D
S214401C80114B93F82330002B04D0FB7B43F03003FA
S214401C90DBB2FB730C4B5B6818780B4B1B68D97D2B
S214401CA007F10F0301220A4CA0470346002B02D03F
S214401CB04FF0FF3303E0044AFB7993740023184641
S214401CC01437BD4690BD00BF00000020E53D4000F3
S214401CD0293D4000F93C400090B585B000AF034632
S214401CE0FB711E4B93F82330FA799A4201D10023B8
S214401CF030E0FB79002B02D03023FB7301E0002359
S214401D00FB73164B9B7C002B04D0FB7B43F00203FB
S214401D10DBB2FB73114B93F82230002B04D0FB7BD5
S214401D2063F07F03DBB2FB730C4B5B6818780B4B9E
S214401D301B68D97D07F10F030122094CA0470346D3
S214401D40002B02D04FF0FF3304E0044AFB7982F8C0
S214401D502330002318461437BD4690BD00000020AF
S214401D60293D400090B585B000AF03463A60FB8001
S214401D700B46BB803B68002B02D14FF0FF333DE063
S214401D80204B9B7A002B02D14FF0FF3336E0FB8886
S214401D901B0A9BB2DBB23B73FB88DBB27B737B7B5D
S214401DA01A46BB881344174A52685289934202DD4A
S214401DB04FF0FF3322E0134B5B681878114B1B68DB
S214401DC0D97E07F10C0302220F4CA0470346002B96
S214401DD002D04FF0FF3311E00A4B5B681878094B8E
S214401DE01B68197EBB88DAB23B68074CA04703469F
S214401DF0002B02D04FF0FF3300E000231846143784
S214401E00BD4690BD00000020293D400090B585B0FD
S214401E1000AF03463A60FB800B46BB803B68002B16
S214401E2002D14FF0FF333DE0204B9B7A002B02D18E
S214401E304FF0FF3336E0FB881B0A9BB2DBB23B73A6
S214401E40FB88DBB27B737B7B1A46BB881344174AFE
S214401E5052685289934202DD4FF0FF3322E0134B23
S214401E605B681878114B1B68D97E07F10C03022279
S214401E700F4CA0470346002B02D04FF0FF3311E033
S214401E800A4B5B681878094B1B68197EBB88DAB228
S214401E903B68084CA0470346002B02D04FF0FF3368
S214401EA000E0002318461437BD4690BD00000020D1
S214401EB0293D4000E53D400090B58BB000AFB9608D
S214401EC011461A460346FB810B46BB811346FB80F0
S214401ED0374B93F82530002B02D04FF0FF3362E0AB
S214401EE0BB68002B02D14FF0FF335CE00023FB843D
S214401EF034E0FA89FB8CD31A102BA8BF1023BB847E
S214401F00FB8CBA681A44B98CFB8C1846294B984708
S214401F100346002B02D04FF0FF3344E007F1140293
S214401F20B98CFB8C1846244B98470346002B02D0AE
S214401F304FF0FF3337E0FB8CBA681344BA8C07F196
S214401F40140118461D4B98470346002B02D06FF0ED
S214401F50010328E0FA8CBB8C1344FB84FA8CFB8983
S214401F609A42C6D3BB891B0A9BB2DBB23B74BB8981
S214401F70DBB27B740E4B5B6818780D4B1B68597F41
S214401F8007F1100302220E4CA0470346002B02D056
S214401F904FF0FF3307E0064B012283F82520044A22
S214401FA0FB88D384002318462C37BD4690BD00BF1F
S214401FB000000020651D40000D1E4000A169400045
S214401FC0293D400090B585B000AF0346FB71264BD7
S214401FD093F82430FA799A4201D1002340E0FB7905
S214401FE0002B27D0204B93F82530002B02D14FF002
S214401FF0FF3335E000201D4B984700201C4B984788
S214402000194BDB8C18461B4B98470023FB73164B2B
S2144020105B68187807F10F0301222321164CA0476E
S214402020114B012283F824200120104B9847134B74
S214402030984714E000200D4B98470B4B1B7CFB73D6
S214402040094B5B68187807F10F03012223210A4CDD
S214402050A047054B002283F82420084B98470023CE
S21440206018461437BD4690BD00000020610D400064
S214402070411B400051164000293D400019114000C8
S21440208090B585B000AF01209B4B98470C23FB735F
S21440209010E03B1DF87B01220021984CA0470346E8
S2144020A0BB60BB68002B02D13B79482B06D0FB7B3C
S2144020B00133FB73FB7B0F2BEBD900E000BFFB7BB0
S2144020C00F2B02D94FF0FF3312E18D4AFB7B82F88B
S2144020D02A3010233B718A4B93F82A003B1D01227D
S2144020E00A21884CA0470346002B02D04FF0FF330E
S2144020F0FEE00120844B98471F233B71804B93F8AA
S2144021002A003B1D01220A217E4CA0470346002B95
S21440211002D04FF0FF33EBE001207B4B9847784BE3
S21440212093F82A003B1D03221021744CA047034617
S214402130002B02D04FF0FF33DAE03B799BB280337E
S2144021409BB21AB26E4B9A857B799BB280339BB218
S2144021501AB26B4BDA85BB799BB280339BB21AB20C
S214402160674B1A8610233B71654B93F82A003B1D3C
S21440217001220A21634CA0470346002B02D04FF0B1
S214402180FF33B5E00120604B984700205A4B9847F4
S21440219040233B715A4B5B681878594B1B68997EB5
S2144021A03B1D0122574CA0470346002B02D04FF060
S2144021B0FF339DE0524B93F82A3063F07F03DBB247
S2144021C03B714F4B5B6818784D4B1B68997F3B1DA6
S2144021D001224C4CA0470346002B02D04FF0FF3361
S2144021E086E002233B71464B5B681878444B1B687D
S2144021F0D97F3B1D0122434CA0470346002B02D00B
S2144022004FF0FF3374E088233B713D4B5B68187892
S2144022103B4B1B6893F820103B1D0122394CA047CE
S2144022200346002B02D04FF0FF3361E0344B93F867
S2144022302A303B71324B5B681878314B1B6893F8F9
S21440224021103B1D01222F4CA0470346002B02D0F5
S2144022504FF0FF334CE00A233B71294B5B681878FC
S214402260274B1B6893F822103B1D0122254CA047A4
S2144022700346002B02D04FF0FF3339E081233B71F9
S2144022801F4B5B6818781E4B1B6893F823103B1D4A
S21440229001221C4CA0470346002B02D04FF0FF33D0
S2144022A026E011233B71164B5B681878144B1B686D
S2144022B093F826103B1D0122124CA0470346002BE4
S2144022C002D04FF0FF3313E003233B710C4B5B68A7
S2144022D018780B4B1B6893F827103B1D0122094CBE
S2144022E0A0470346002B02D04FF0FF3300E0002308
S2144022F018461437BD4690BD411B4000E53D4000A2
S21440230000000020293D4000F93C400098B500AF51
S2144023104FF48062C823044940F6F630034CA04789
S2144023200346184698BD00BF2C6F4000B91E4000BB
S21440233080B588B000AF0346FB806D4A07F11403B2
S2144023401188927819809A706A4A07F110031188AA
S214402350927819809A70684A07F10C03118892782F
S21440236019809A70654A07F1080311889278198097
S2144023709A70FB8803F0030307F12002134413F816
S2144023800C3C3B77FB88DB089BB203F0030307F16A
S2144023902002134413F80C3C7B77FB889B099BB2C6
S2144023A003F0030307F12002134413F80C3CBB77F9
S2144023B0FB8803F0030307F12002134413F8103C94
S2144023C03B76FB88DB089BB203F0030307F1200251
S2144023D0134413F8103C7B76FB889B099BB203F0B2
S2144023E0030307F12002134413F8103CBB7607F1B1
S2144023F01C031A46032140F22640414B98470346A9
S214402400002B02D04FF0FF336EE007F118031A4658
S214402410032140F22A403A4B98470346002B02D00D
S2144024204FF0FF3360E007F11C0307F10C0212681F
S214402430114619800233120C1A7007F1180307F17F
S21440244008021268114619800233120C1A70FB8873
S21440245003F00403002B09D03B7F43F00103DBB2BB
S2144024603B773B7E43F00103DBB23B76FB8803F0D1
S2144024702003002B09D07B7F43F00103DBB27B7740
S2144024807B7E43F00103DBB27B76FB8803F48073EC
S214402490002B09D0BB7F43F00103DBB2BB77BB7E8A
S2144024A043F00103DBB2BB7607F11C031A46032157
S2144024B04FF48860124B98470346002B02D04FF0EB
S2144024C0FF3311E007F118031A46032140F231406A
S2144024D00B4B98470346002B02D04FF0FF3303E0E8
S2144024E0084AFB881381002318462037BD4680BD26
S2144024F0247B4000287B40002C7B4000307B400003
S214402500651D4000AC04002080B588B000AF03468F
S214402510FB80204A07F1100310685168926807C391
S214402520FB88C82B02D94FF0FF332EE0FB88C82229
S21440253092FBF3F39BB2013BFB83FB8B1B0A9BB2E4
S214402540DBB23B72FB8BDBB27B7207F108031A46A9
S214402550022140F21620104B98470346002B02D02B
S2144025604FF0FF3311E007F110031A460C2140F6F6
S214402570C120094B98470346002B02D04FF0FF334B
S21440258003E0064AFB889381002318462037BD4661
S21440259080BD00BF347B4000651D4000AC04002079
S2144025A080B586B000AF03460A46FB711346BB8033
S2144025B0FB7903F00703002B03D0BB88B3F5C86F45
S2144025C002D94FF0FF330FE1BA88894B104698473F
S2144025D00246884B88491046984703463B6107F1B8
S2144025E00B031846854B9847FB7A023B0E2B00F2AE
S2144025F0818001A252F823F035264000F52640009F
S21440260065264000F5264000F5264000F5264000A9
S21440261095264000F5264000F5264000F526400069
S214402620F5264000F5264000F5264000F5264000F9
S214402630C5264000724B4FF08D4138699847034697
S2144026401A46704B104698470346FB826C4B6E49C1
S2144026503869984703461A466A4B104698470346D9
S214402660BB824AE0664B4FF08C4138699847034638
S2144026701A46644B104698470346FB82604B6349B4
S2144026803869984703461A465E4B104698470346B5
S214402690BB8232E05A4B4FF08B413869984703462D
S2144026A01A46584B104698470346FB82544B5849A7
S2144026B03869984703461A46524B10469847034691
S2144026C0BB821AE04E4B4FF08A4138699847034622
S2144026D01A464C4B104698470346FB82484B4D499A
S2144026E03869984703461A46464B1046984703466D
S2144026F0BB8202E04FF0FF3376E0FB8A1B0A9BB2B8
S214402700DBB23B73FB8ADBB27B73BB8A1B0A9BB292
S214402710DBB2BB73BB8ADBB2FB73FB7903F001030E
S214402720002B1CD007F10C031A4602214FF4EA7026
S214402730394B98470346002B02D04FF0FF3353E007
S21440274007F10C0302331A4602214FF49270324BC3
S21440275098470346002B02D04FF0FF3344E0FB7906
S21440276003F00203002B1CD007F10C031A4602218B
S2144027704FF4EC70284B98470346002B02D04FF09E
S214402780FF3331E007F10C0302331A4602214FF4BF
S2144027909470214B98470346002B02D04FF0FF33EE
S2144027A022E0FB7903F00403002B1CD007F10C0356
S2144027B01A4602214FF4EE70174B98470346002BFB
S2144027C002D04FF0FF330FE007F10C0302331A46F6
S2144027D002214FF49670104B98470346002B02D0C8
S2144027E04FF0FF3300E0002318461837BD4680BD43
S2144027F0D5644000ED664000000048433914400070
S2144028008565400011694000000040460000C04514
S214402810000040450000C044651D400080B584B0BF
S21440282000AF0346FB710023FB73FB7903F0010303
S214402830002B04D0FB7B43F03003DBB2FB73FB7909
S21440284003F00203002B04D0FB7B43F00C03DBB207
S214402850FB73FB7903F00403002B04D0FB7B43F0AF
S2144028600303DBB2FB7307F10F031A4601214FF453
S214402870A470034B9847034618461037BD4680BDA4
S214402880651D400080B584B000AF0346FB71FB7900
S214402890002B02D10123FB7104E0FB79042B01D904
S2144028A00423FB71FB79013BDBB2FB7307F10F039B
S2144028B01A46012140F24F10034B984703461846EC
S2144028C01037BD4680BD00BF651D400080B584B052
S2144028D000AF0346FB80FB880C4AA2FB03239B0801
S2144028E0FB81FB891B0A9BB2DBB23B73FB89DBB2E5
S2144028F07B7307F10C031A4602214FF4EF70044B2A
S2144029009847034618461037BD4680BDCDCCCCCC44
S214402910651D400080B584B000AF0346FB80FB8851
S2144029200C4AA2FB03239B08FB81FB891B0A9BB234
S214402930DBB23B73FB89DBB27B7307F10C031A46B1
S21440294002214FF4ED70044B984703461846103763
S214402950BD4680BDCDCCCCCC651D400080B584B096
S21440296000AF78600B467B807B68134A82FB03127D
S2144029709211DB17D31A7A8802FB03F3FB60FB68DD
S2144029801B16DBB23B72FB681B14DBB27B72FB6828
S2144029901B12DBB2BB72FB68DBB2FB7207F10803AB
S2144029A01A4604214FF4AE70044B98470346184627
S2144029B01037BD4680BD00BFD34D6210651D400038
S2144029C080B584B000AF0346FB80FB880C4AA2FB70
S2144029D003239B08FB80FB881B0A9BB2DBB23B733E
S2144029E0FB88DBB27B7307F10C031A4602214FF4D7
S2144029F0AD70044B9847034618461037BD4680BD19
S214402A00CDCCCCCC651D400080B584B000AF03462D
S214402A10FB80FB880C4AA2FB03239B08FB80FB88B9
S214402A201B0A9BB2DBB23B73FB88DBB27B7307F1BE
S214402A300C031A4602214FF4AC70044B98470346E9
S214402A4018461037BD4680BDCDCCCCCC651D400069
S214402A5080B586B000AF0346FB8002233B73CA2393
S214402A607B73E323BB730923FB7307F10C031A46FE
S214402A7004216820884B9847A3233B73FB8803F0C8
S214402A804003002B06D0C0237B73C823BB73C223EE
S214402A90FB7305E0A3237B73A323BB73A323FB73C2
S214402AA0FB8803F4C073002B06D0C4233B74CC23AE
S214402AB07B74C623BB7405E0A3233B74A3237B74BB
S214402AC0A323BB74A323FB74A3233B75A3237B756B
S214402AD007F10C031A460A2140F6A7206E4B98478A
S214402AE0FB8803F00303002B02D020233B7301E056
S214402AF0D8233B7307F10C031A46012140F6B62053
S214402B00654B9847FB8803F02003002B03D0012039
S214402B10624B984702E00020604B9847FB8803F4DE
S214402B20C073002B1DD0FB8803F48073002B08D0A5
S214402B30B2233B738B237B73B623BB739B23FB73FE
S214402B4007E0B0233B7380237B73B423BB7390238F
S214402B50FB7307F10C031A46042140F6A2204E4BA5
S214402B609847FB8803F00103002B25D0F8233B73DE
S214402B7007F10C031A4601214FF40B60464B984769
S214402B80FA210720464B98470720464B9847012096
S214402B90454B98476420454B98474FF4FA70444B52
S214402BA09847C8214348444B98472820434B98476A
S214402BB00A20434B984709E0D8233B7307F10C03A0
S214402BC01A4601214FF40B60334B9847FB8803F0BD
S214402BD00203002B02D0D9233B7301E0D8233B737A
S214402BE007F10C031A46012140F23D702A4B9847E4
S214402BF0FB8803F00403002B03D00120314B984799
S214402C0002E000202F4B9847FB8803F01003002B70
S214402C1003D001202C4B984702E000202A4B9847CF
S214402C20FB8843F008039AB2284B5A81284B9847B2
S214402C30264B00229A73FB8803F04003002B05D0F6
S214402C40224B9B7B0633DAB2204B9A73FB8803F405
S214402C50C073002B05D01D4B9B7B0633DAB21B4B53
S214402C609A73FB8803F01403002B05D0174B9B7B0D
S214402C701033DAB2154B9A73FB8803F00303002B2C
S214402C8005D0124B9B7B0433DAB2104B9A73002369
S214402C9018461837BD4680BD651D4000D52C4000FF
S214402CA0A12540001D28400085284000CD28400032
S214402CB01529400009E3CA025D294000C1294000A9
S214402CC0092A4000412D40009D2D4000AC040020C4
S214402CD01911400080B588B000AF0346FB71FB7900
S214402CE0002B11D0134A07F114031068516803C330
S214402CF0127A1A7007F114031A4609214FF49760A6
S214402D000D4B9847034610E00C4A07F1080310683D
S214402D10516803C3127A1A7007F108031A4609214C
S214402D204FF49760044B9847034618462037BD46F5
S214402D3080BD00BF407B4000651D40004C7B40008E
S214402D4080B584B000AF0346FB71FB79002B08D0FA
S214402D50C0233B73C2237B73C423BB73C623FB735E
S214402D6006E007F10C0304228B211846084B9847CF
S214402D7007F10C031A46042140F69820054B984765
S214402D80054B9847034618461037BD4680BD00BFE2
S214402D90396B4000651D40001911400080B584B075
S214402DA000AF0346FB71FB79002B08D020233B7312
S214402DB028237B733023BB733823FB7306E007F16D
S214402DC00C030422A3211846084B984707F10C032E
S214402DD01A46042140F69E20054B9847054B9847D7
S214402DE0034618461037BD4680BD00BF396B4000CD
S214402DF0651D40001911400080B584B000AF786072
S214402E007B6803331B7823F03F03FB737B680333F5
S214402E101B7803F03F03BB737B6801331B7803F0DA
S214402E200103002B12D0BB7BDB087B73BB7B03F01C
S214402E300703DBB201333B73104B1B68002B05D0F6
S214402E400E4B1B68397B7A7B104698477B6801336C
S214402E501B7803F00803002B0AD0084B5B68002B56
S214402E6006D0064B5B68FA7B9209D2B2104698476A
S214402E70002318461037BD4680BD00BFAC04002076
S214402E8080B592B000AFF860B9607A603B600023CE
S214402E9087F847303B6D00221A80B24B9B7B9BB233
S214402EA007F120017A6D1846AF4B98470346002B32
S214402EB002D04FF0FF3351E1AA4B5B8903F0140375
S214402EC0002B00F0878097F820301A0697F82130BC
S214402ED01B041A4397F822301B02134397F823200B
S214402EE01A437B681A607B68043397F824201106DF
S214402EF097F825201204114397F8262012020A4319
S214402F0097F827100A431A607B68083397F82820FA
S214402F10110697F829201204114397F82A20120226
S214402F200A4397F82B100A431A607B680C3397F8CD
S214402F302C20110697F82D201204114397F82E20C6
S214402F4012020A4397F82F100A431A6097F8473040
S214402F50103387F847307B681B681B143B617B68DF
S214402F6004331B681B147B617B6808331B681B1487
S214402F70BB617B680C331B681B14FB613B693A6979
S214402F8002FB03F27B69796901FB03F31A44BB69D0
S214402F90B96901FB03F31A44FB69F96901FB03F3C2
S214402FA013443B643B6CB3F1706F03DB3B6CB3F193
S214402FB0885F07DD6D4B98473B6D00221A804FF0C7
S214402FC0FF33CBE03B6DB3F9003043F480731AB265
S214402FD03B6D1A80634B5B8903F04003002B52D055
S214402FE097F8473007F14802134413F8283C1B0271
S214402FF01AB297F84730013307F148010B4413F8EB
S214403000283C1BB213431AB2BB681A80BB68023313
S21440301097F84720023207F148010A4412F8282C54
S214403020120211B297F84720033207F148000244D3
S21440303012F8282C12B20A4312B21A80BB68043324
S21440304097F84720043207F148010A4412F8282C22
S214403050120211B297F84720053207F148000244A1
S21440306012F8282C12B20A4312B21A8097F8473048
S214403070063387F847303B6DB3F9003043F008031A
S2144030801AB23B6D1A80374B5B8903F4C073002B32
S21440309052D097F8473007F14802134413F8283CBB
S2144030A01B021AB297F84730013307F148010B4428
S2144030B013F8283C1BB213431AB2FB681A80FB680D
S2144030C0023397F84720023207F148010A4412F8C3
S2144030D0282C120211B297F84720033207F1480015
S2144030E0024412F8282C12B20A4312B21A80FB6825
S2144030F0043397F84720043207F148010A4412F88F
S214403100282C120211B297F84720053207F14800E2
S214403110024412F8282C12B20A4312B21A8097F8C8
S2144031204730063387F847303B6DB3F9003043F0FD
S21440313070031AB23B6D1A800A4B5B8903F0030397
S214403140002B07D097F8473007F120021344184663
S214403150074B98473868074B984700231846483728
S214403160BD4680BDAC0400203D1A40001911400009
S214403170F92D4000CD3C400080B400AF824A824BDF
S2144031801B6843F480531360804A804B1B6843F0AF
S214403190004313607E4A7E4B1B6843F00403136073
S2144031A07B4A7B4B1B6843F400731360784A784B2A
S2144031B01B6823F480731360754A754B1B6823F4B1
S2144031C080631360734B00221A60734B64221A604C
S2144031D0724A724B1B6843F400131360704B4FF4F3
S2144031E000121A606F4A6F4B1B6843F4805313609B
S2144031F06D4A6D4B1B6843F4805313606B4A6B4BB0
S2144032001B6843F480531360694A694B1B6843F458
S21440321080031360674A674B1B6843F48003136060
S214403220654A654B1B6843F480031360634A634BEF
S2144032301B6843F004031360604A604B1B6843F40A
S214403240007313605D4A5D4B1B6823F48073136004
S2144032505A4A5A4B1B6823F480631360584B00222B
S2144032601A60584B64221A604C4A4C4B1B6843F415
S214403270801313604A4B4FF480121A604C4A4C4BF2
S2144032801B6843F4002313604A4A4A4B1B6843F4C6
S214403290002313604C4A4C4B1B6843F000431360BA
S2144032A04A4A4A4B1B6843F000431360484A484B1F
S2144032B01B6843F0004313603F4A3F4B1B6843F490
S2144032C000231360434A434B1B6843F004031360D8
S2144032D0404A404B1B6843F4007313603D4A3D4BE5
S2144032E01B6823F4807313603A4A3A4B1B6823F4F6
S2144032F080631360384B00221A60384B64221A6091
S214403300264A264B1B6843F400731360244B4FF445
S21440331000721A602D4A2D4B1B6843F080431360A1
S2144033202B4A2B4B1B6843F080431360264A264BA0
S2144033301B6843F000531360244A244B1B6843F039
S21440334000531360224A224B1B6843F0005313601D
S2144033501D4A1D4B1B6843F080431360204A204B98
S2144033601B6843F0020313601D4A1D4B1B6843F065
S214403370040313601A4A1A4B1B6843F00803136091
S21440338000BFBD4680BC704714030E4010040E407C
S21440339060020240640202406802024004120E408C
S2144033A070120E4000100E4010100E4034100E40AA
S2144033B000120E4010120E4034120E4040020240E0
S2144033C04402024048020240340E0E40000E0E40B8
S2144033D0100E0E4020020240240202402802024004
S2144033E00400024000000000F0B587B000AF7860EF
S2144033F00B46FB7005E0A44BA44978689847034603
S2144034007B60A34BA349786898470346002BF2D1CC
S21440341005E0A14B9D497868984703467B609F4BE3
S2144034209F49786898470346002BF2D1FB78642B77
S21440343001D96423FB709B4B786898479A4C8AA3C3
S214403440D3E90023A04703460C4618462146974C2E
S2144034504FF00002964BA04703460C4619462246BC
S214403460944B0846114698470346BB60FA78924B01
S2144034701046984705460E468A4BB8689847024617
S2144034800B468E4C7AA1D1E90001A04703460C4674
S214403490184621468A4B984702460B46824C284699
S2144034A03146A04703460C4619462246814B0846FD
S2144034B01146984703467B61FA787F4B10469847FB
S2144034C005460E46774BB868984702460B467B4CF7
S2144034D069A1D1E90001A04703460C46184621469B
S2144034E0774B984702460B466F4C28463146A047D6
S2144034F003460C46194622466E4B084611469847E8
S21440350003463B61FA786C4B1046984705460E4694
S214403510644BB868984702460B46684C58A1D1E9B8
S2144035200001A04703460C4618462146644B984780
S21440353002460B465C4C28463146A04703460C469E
S214403540194622465B4B0846114698470346FB60A1
S2144035504F4B4FF00001786998470346002B0CD03C
S214403560584A584B1B6843F480031360564A564BE0
S2144035701B6843F48053136024E0544B4FF0000123
S214403580786998470346002B0CD04E4A4D4B1B6833
S21440359043F4800313604E4A4D4B1B6843F48053FC
S2144035A013600FE07B6983F000437B61494A494BD7
S2144035B01B6843F480031360454A454B1B6843F43D
S2144035C080531360324B4FF00001386998470346EA
S2144035D0002B0CD0404A404B1B6843F0004313601E
S2144035E03C4A3C4B1B6843F40023136024E0374BB3
S2144035F04FF00001386998470346002B0CD0364AF6
S214403600354B1B6843F0004313602E4A2D4B1B6816
S21440361043F4002313600FE03B6983F000433B61B3
S2144036202E4A2E4B1B6843F000431360254A254B19
S2144036301B6843F400231360154B4FF00001F868F5
S21440364098470346002B4BD0234A234B1B6843F036
S21440365000531360214A214B1B6843F0804313609C
S21440366063E000BFAFF30080182D4454FB210940AF
S214403670D221337F7CD9124065732D3852C1E03F4A
S2144036803FD038C6A6F10440716340000000B44302
S214403690FD6840000000344375634000C168400048
S2144036A0000034C39D5C4000455D4000995F40008B
S2144036B000806640C9624000795C4000DD594000A9
S2144036C02547400034120E4030100E40AD68400092
S2144036D034100E4030120E40340E0E40300E0E4067
S2144036E01D4B4FF00001F86898470346002B0CD05E
S2144036F01A4A1A4B1B6843F000531360174A174B7D
S2144037001B6843F0804313600FE0FB6883F0004380
S214403710FB60134A124B1B6843F0005313600F4A7A
S2144037200E4B1B6843F0804313600E4C0E4BF868FC
S2144037309847034623600D4C0B4B38699847034621
S21440374023600B4C084B786998470346236000BFBC
S2144037501C37BD46F0BD00BFAD684000340E0E407D
S214403760300E0E40300202401169400050020240C6
S2144037707002024080B483B000AF03460A46FB7135
S2144037801346BB71FB79002B24D12D4A2C4B1B686A
S21440379043F4800313602B4A2A4B1B6843F4805340
S2144037A01360294A284B1B6843F000431360274A9E
S2144037B0264B1B6843F400231360234A224B1B68A6
S2144037C043F000531360224A214B1B6843F080436A
S2144037D0136026E0FB79012B23D11C4A1B4B1B6848
S2144037E043F4800313601B4A1A4B1B6843F4805310
S2144037F01360174A164B1B6843F000431360104A89
S2144038000F4B1B6843F400231360114A104B1B6890
S21440381043F0005313600C4A0B4B1B6843F0804345
S21440382013600D4ABB7913600C4ABB7913600C4A8F
S214403830BB79136000BF0C37BD4680BC704700BFE5
S21440384030120E4034100E40300E0E4034120E40F1
S214403850340E0E4030100E403002024050020240FD
S2144038607002024090B585B000AF4FF00003FB6099
S214403870F9203D4B984703467B81F8203A4B9847C2
S21440388003463B813B89B3F5007F4AD97B89B3F534
S214403890007F46D93B89354AA2FB0323DB0B9BB20C
S2144038A01A46642303FB02F2314B10469847034600
S2144038B07B607B892D4AA2FB0323DB0B9BB21A4617
S2144038C0642303FB02F22A4B1046984703463B60AC
S2144038D0284B29497868984703461C46274B396841
S2144038E07868984703461A46254B1146204698471F
S2144038F003461A46234B24491046984703461A4621
S2144039001E4B1146104698470346FB601C4B4FF033
S2144039108041F86898470346322118461B4B984723
S2144039201EE07B89B3F5805F03D83B89B3F5805FA3
S21440393002D9174B984713E03A897B89D31A9F2BB5
S21440394004DD1E210020134B984709E07A893B8905
S214403950D31A9F2B04DD1E2101200E4B9847FFE70C
S21440396000BF1437BD4690BD6141400001800080D5
S214403970DD644000856540000000C8427563400035
S214403980ED6640007163400000004842E933400065
S214403990993940007537400080B400AF134A134B46
S2144039A01B6843F480531360114A114B1B6843F461
S2144039B0800313600E4A0E4B1B6843F400231360CB
S2144039C00C4A0C4B1B6843F000431360094A094BF2
S2144039D01B6843F080431360064A064B1B6843F05F
S2144039E00053136000BFBD4680BC704734100E4085
S2144039F034120E40340E0E4080B400AF2B4A2B4B90
S214403A001B6843F4001313602949294B1A68294B55
S214403A1013430B60264A264B1B6823F001031360B2
S214403A20254A254B1B6843F080031360234A234BEB
S214403A301B6843F480531360204A204B1B6843F4B2
S214403A40005313601D4A1D4B1B6843F480431360AC
S214403A501B4A1B4B1B6843F480431360194A194B9F
S214403A601B6843F480431360134A134B1B6843F0B0
S214403A7001031360144A144B1B6843F001031360A0
S214403A80114A114B1B6823F0020313600E4A0E4B7B
S214403A901B6843F4502313600C490C4B1A680C4BBC
S214403AA013430B6000BFBD4680BC704710040E40F9
S214403AB0E48000400049505300800040040E0E4011
S214403AC000100E4010100E4004800040348000402D
S214403AD001F0001780B584B000AF0023FB60364A83
S214403AE0354B1B6843F000631360344A334B1B6806
S214403AF043F0006313600020314B98470246FB6852
S214403B001344FB6079202F4B98470246FB681344CA
S214403B10FB60C8202C4B98470246FB681344FB606A
S214403B2064202A4B98470246FB681344FB6007F123
S214403B3008031846264B98470246FB681344FB602A
S214403B40BB1D1846234B98470246FB681344FB6050
S214403B5007F10B031846204B98470246FB68134470
S214403B60FB601E4B98470246FB681344FB601C48AC
S214403B701C4B9847034618461B4B98470246FB6823
S214403B801344FB601020194B98470246FB681344C9
S214403B90FB60C820164B98470246FB681344FB6000
S214403BA00120144B98470246FB681344FB6000BF55
S214403BB01037BD4680BD00BF000E0E40100E0E40B2
S214403BC0190E400071184000511640004117400041
S214403BD02116400029134000391440000D234000B0
S214403BE040000020F93B400031234000512A40006D
S214403BF009254000C51F400080B584B000AF7860FE
S214403C007868114B98470346FB817B680333184618
S214403C100D4B98470346DB001AB2B7F90E301343F4
S214403C201BB2FB817B6806331846074B9847034612
S214403C309B011AB2B7F90E3013431BB2FB81FB89C6
S214403C4018461037BD4680BD4D3C400080B485B018
S214403C5000AF78607B6893F90030002B02DD0023CC
S214403C60FB812DE07B6893F90030002B02DA0423B9
S214403C70FB8125E07B68013393F90030002B02DDA1
S214403C800123FB811CE07B68013393F90030002B55
S214403C9002DA0523FB8113E07B68023393F9003098
S214403CA0002B02DD0223FB810AE07B68023393F996
S214403CB00030002B02DA0623FB8101E00723FB815C
S214403CC0FB8918461437BD4680BC704780B483B025
S214403CD000AF78607B68002B01D1012304E0054BE0
S214403CE01A687B681A60002318460C37BD4680BCAD
S214403CF0704700BFBC04002080B485B000AF786039
S214403D00084B1B68FB6000BFFA687B681A44054B8B
S214403D101B689A42F8D8002318461437BD4680BC24
S214403D20704700BFBC04002080B485B000AF3B6045
S214403D300346FB710B46BB7113467B71244A244BEA
S214403D401B6843F024031360224AFB791B0403F4E8
S214403D50FE0343F4807313601F4ABB7913607B797C
S214403D60012B0ED11D4A3B681B781360184B02226C
S214403D701A6000BF1A4B1B6803F00403002BF9D0EF
S214403D8019E00023FB730FE01449FB7B3A681344A9
S214403D901B780B6000BF124B1B6803F00403002B1C
S214403DA0F9D0FB7B0133FB73FA7B7B799A42EBD3EA
S214403DB0074B02221A6000BF094B1B6803F0010341
S214403DC0002BF9D0002318461437BD4680BC7047F8
S214403DD000000440040004400C000440340004404A
S214403DE02000044080B485B000AF3B600346FB71C2
S214403DF00B46BB7113467B712D4A2D4B1B6843F017
S214403E00240313602B4AFB791B0403F4FE0343F49C
S214403E1088531360284ABB7913607B79012B17D1EE
S214403E20234B03221A6000BF244B1B6803F0020397
S214403E30002BF9D0224B1B68DAB23B681A7000BFE1
S214403E401E4B1B6803F00103002BF9D000232AE029
S214403E50174B01221A600023FB7318E000BF174B74
S214403E601B6803F00203002BF9D0FB7B3A6813442F
S214403E70134A1268D2B21A70FA7B7B79023B9A4296
S214403E8002D10B4B02221A60FB7B0133FB73FA7B99
S214403E907B799A42E2D300BF084B1B6803F00103CC
S214403EA0002BF9D0002318461437BD4680BC704717
S214403EB000000440040004400C000440200004407D
S214403EC03000044090B585B002AF224B1B6803F02B
S214403ED01003002B3AD0204B1B6801331E4A136058
S214403EE01E4B1B6803F57A721B4B1B689A4216D80A
S214403EF0194B1B68194A1360194B1B6803F0006383
S214403F00002B06D0174A174B1B6843F0006313601C
S214403F1005E0154A144B1B6843F000631360134BCF
S214403F201B685A1D0C4B1B689A420FD80A4B1B68DD
S214403F300E4A13600E4B1A680E4B01930E4B0093BD
S214403F400E4B0F490F48104CA047786000BF0C3707
S214403F50BD4690BD20000140BC040020C0040020A7
S214403F60380E0E40340E0E40300E0E40C404002074
S214403F703C000020C60F0020E40F0020E00F002089
S214403F80B80F0020C00F0020812E400080B485B0BE
S214403F9000AF0346FB71114AFB79012101FA03F396
S214403FA013600F4A0E4B1B6843F00203136000BFBA
S214403FB00C4B1B6803F08073002BF9D00A4AFB7940
S214403FC0012101FA03F31360084B1B68FB81FB8950
S214403FD018461437BD4680BC704700BF108003406B
S214403FE0008003403080034014800340208003401C
S214403FF080B483B000AF1E4A1D4B1B6843F40023B9
S21440400013601C4A1B4B1B6843F008031360194A95
S214404010184B1B6843F010031360174B80221A603E
S2144040200123FB713F23BB711C237B711349134B48
S2144040301B68FA79120413430B6010490F4B1B6838
S2144040407A79120213430B600C490C4B1A68BB7901
S21440405013430B60084A084B1B6843F02403136065
S214404060074B1B683B7100BF0C37BD4680BC704792
S21440407010040E40040E0E400080014010800140A7
S2144040803080014080B500AF114A114B1B6843F0A9
S214404090040313600F4A0F4B1B6843F0040313607E
S2144040A00D4A0D4B1B6843F00403136004220221A3
S2144040B06B200A4B9847662203216B20074B984794
S2144040C0FA2205216B20054B984700BF80BD00BFF4
S2144040D000100E4010100E4034100E40F9414000C3
S2144040E080B582B000AF0346FB71FB791846054B9E
S2144040F09847002200211020034B984700BF0837FE
S214404100BD4680BD91414000F941400080B582B037
S21440411000AF0346FB71FB7918460F4B98470022C9
S214404120802139200D4B9847FF22822139200B4BA6
S214404130984708228E213920084B984720228F2105
S2144041403920064B9847052280213920034B984753
S21440415000BF0837BD4680BD91414000F941400050
S21440416080B584B000AF0346FB71FB791846064B1A
S21440417098470B211020054B98470346FB81FB8947
S21440418018461037BD4680BD914140007D424000F4
S21440419080B483B000AF0346FB71134A124B1B68D2
S2144041A043F024031360114B4FF4E0021A60104AA8
S2144041B0FB7913600C4A0C4B1B6843F002031360F8
S2144041C000BF0C4B1B6803F00403002BF9D000BF64
S2144041D0084B1B6803F00103002BF9D000BF0C37D7
S2144041E0BD4680BC704700BF00800140048001404F
S2144041F0348001402080014080B483B000AF034645
S214404200FB710B46BB7113467B71174A164B1B68F6
S21440421043F024031360154AFB791B041360134ACA
S214404220124B1B6843F480731360114ABB791360CA
S214404230104A7B7913600C4A0B4B1B6843F0020311
S214404240136000BF0C4B1B6803F00403002BF9D02F
S21440425000BF094B1B6803F00103002BF9D000BFD9
S2144042600C37BD4680BC704700800140048001404A
S2144042700C800140348001402080014080B485B0ED
S21440428000AF03460A46FB711346BB71264A264BCF
S2144042901B6843F024031360244AFB791B04136015
S2144042A0224A224B1B6843F4807313601F4A1F4BFD
S2144042B01B6843F4805313601D4ABB7913601A4A47
S2144042C0194B1B6843F00103136000BF194B1B6872
S2144042D003F00203002BF9D0174B1B68FB73124AFE
S2144042E0114B1B6843F00203136000BF114B1B6861
S2144042F003F00203002BF9D00F4B1B68BB7300BFC3
S2144043000C4B1B6803F00103002BF9D0BB7B1B0250
S2144043101AB2FB7B1BB213431BB2BB81BB89184648
S2144043201437BD4680BC7047008001400480014081
S2144043300C800140208001403080014080B582B032
S21440434000AF164B7B60164B3B607A683B689A42E0
S2144043500CD007E03B681A1D3A607A68111D7960F8
S21440436012681A603B680F4A9342F3D30E4B3B6089
S21440437004E03B681A1D3A6000221A603B680B4A0C
S2144043809342F6D30A4B7B600A4A7B6823F07F034E
S2144043909360094B9847094B9847FEE7747D400069
S2144043A0000000207804002078040020E80F002059
S2144043B00000400000ED00E051694000F943400035
S2144043C080B400AFFEE700BF80B483B000AF0346C2
S2144043D0FB71084997F907305B09FA7902F01F022A
S2144043E0012000FA02F241F8232000BF0C37BD46F8
S2144043F080BC704700E100E080B58AB000AF134B48
S21440440098474FF00003BB604FF00003FB60104B33
S214404410984707F11C0318460E4B98470346002B57
S214404420F5D107F11C0393E807000B4B984707F1BB
S21440443010031846094B98470346002BE7D107F16F
S214404440100393E80700064B9847E0E765444000B2
S21440445065384000950A4000ED014000C90C400018
S2144044604D01400080B500AF834B4FF400421A60C8
S214404470824B834A1A60834B834A1A60834A834B33
S2144044801B6843F45C1343F4A05313607F4A7F4B8E
S2144044901B6843F45C1343F00103136000BF7C4B7E
S2144044A01B6803F00103002BF9D0784A774B1B6852
S2144044B043F09B7343F48033136000BF744B1B6818
S2144044C003F48033002BF9D0704B724A1A6072495D
S2144044D0714B1A68714B13430B6000BF6C4B1B68E3
S2144044E003F00203002BF9D06D4B02221A6000BF86
S2144044F0674B1B6803F00803002BF9D0694A694BE9
S2144045001B6843F400631360664A664B1B6843F4BB
S21440451080531360634A634B1B6843F40053136035
S214404520614B624A1A60624B604A1A60614B5F4A4E
S2144045301A60614B9847614B9847614B9847614B6F
S2144045409847614B9847614A604B1B6843F0C0539D
S21440455013605F4A5E4B1B6843F4807313605D4A8A
S2144045605C4B1B6843F0C05313605B4A5A4B1B6856
S21440457043F480731360594A584B1B6843F080538A
S2144045801360574A564B1B6843F480731360534A74
S214404590524B1B6843F000631360524B524A1A60FA
S2144045A0404A404B1B6843F0005313604F494F4B03
S2144045B01A684F4B13430B603A4A3A4B1B6843F416
S2144045C0800313604B4A4B4B1B6843F00303136056
S2144045D0494A494B1B6843F003031360474B80220C
S2144045E01A60474A464B1B6843F48E3343F03F03FA
S2144045F01360424A414B1B6843F024031360294A28
S214404600284B1B6843F40003136017203D4B984724
S2144046103D4A3D4B1B6843F4404343F0020313605E
S2144046203A4A3A4B1B6843F010031360384B40F647
S21440463035421A60374A374B1B6843F00503136010
S214404640F820354B9847F920334B9847FA20334BA0
S2144046509847FF20314B9847FE20304B9847FD2027
S2144046602E4B9847FC202D4B9847FB202B4B9847CA
S2144046702B4B984700BF80BD54140E40000A0E4096
S21440468000050004E4040E4000434D5020040E4054
S21440469068040E400114370128040E40033F1820DA
S2144046A030040E4010040E40E40E0E40004F4950B9
S2144046B0E4100E40E4120E4079314000F9394000D3
S2144046C065034000D53A4000F13F4000000E0E40E2
S2144046D000120E40100E0E4010120E40340E0E40C9
S2144046E034120E40E48003400043444104800340BB
S2144046F00031032004100E4070100E4000000440AD
S21440470010000440C943400004000140240001401A
S2144047101C00014000000140E14040000D414000C7
S2144047208540400030B5224A21F00043934287B08E
S2144047301BDD204A934205DD02460B4601F04EF94A
S21440474007B030BD02AA00F037F800F00303012B93
S2144047501AD0022B0FD01BB30124DDE90423DDE978
S2144047600201009400F06CFFEAE70022002300F00C
S21440477047FA07B030BDDDE90423DDE9020100F069
S2144047803FFA01F10041DBE7DDE904450093DDE94E
S214404790020122462B4600F053FF01F10041CFE7CD
S2144047A0DDE90423DDE9020100F02AFAC8E700BF8C
S2144047B0FB21E93FFFFFEF7F2DE9F04F944E21F0BC
S2144047C00047B74291B040F382809246914A974262
S2144047D00C4626DC002984A3D3E9002340F3A881B5
S2144047E001F0FCF88C4B9F4204460D4600F0848056
S2144047F07FA3D3E9002301F0F1F802460B46CAE94D
S21440480000232046294601F0E9F879A3D3E900239E
S21440481001F0E4F80125CAE90201284611B0BDE8D6
S214404820F08F7E4A974240F384807D4A974259DC17
S2144048303D15A5F21645A7EB055319461F460646F5
S21440484001F01AFD01F018FA8046894602460B46EA
S21440485030463946CDE90A8901F0C0F80022714B4E
S21440486001F070FA8946804601F006FD01F004FA30
S21440487002460B4606460F4640464946CDE90C677B
S21440488001F0ACF80022674B01F05CFA00220023EE
S214404890CDE90E0101F0BEFC002800F07581002332
S2144048A030463946002201F0B5FC002814BF0123EB
S2144048B002235D4A0192022100912A4651460AA8E7
S2144048C000F0C2FA002CC0F25181054606E0C2E96B
S2144048D0000100250024C2E902450025284611B003
S2144048E0BDE8F08F02460B4601F078F80025CAE98D
S2144048F00201CAE90001F1E73FA3D3E9002301F032
S2144049006DF83FA3D3E900230D46044601F066F850
S21440491002460B46CAE900232946204601F05EF8C7
S21440492037A3D3E9002301F059F80125CAE902016B
S214404930D4E700F03BFF34A3D3E900238046894602
S21440494001F000FA0022394B01F04AF801F094FCDD
S214404950054601F091F924A3D3E90023CDE90401EB
S21440496001F0F0F902460B464046494601F036F85B
S2144049701FA3D3E9002380468946DDE9040101F000
S214404980E1F91F2DCDE9020154DC294B6A1E53F88C
S21440499022309F424ED002460B464046494601F0E2
S2144049A01DF802460B46CAE9002383460E465A4681
S2144049B033464046494601F011F8DDE9022301F04E
S2144049C00DF8002C02460B46CAE9022386DA5B46FF
S2144049D006F1004601F100418AE84800CAF80C108A
S2144049E0CAF808006D4279E700004054FB21F93FC1
S2144049F03163621A61B4D03D0000601A61B4D03DA4
S214404A007370032E8A19A33B83C8C96D305FE43F99
S214404A10FB21E93F7BD90240FB21F93FFB2139418D
S214404A20FFFFEF7F00007041F07B40000000E03F5A
S214404A30707B4000DDE902234046494600F0CEFF49
S214404A403A15C1F30A53D31A102B83460E460992E1
S214404A50CAE90001ABDD5EA3D3E90023DDE904012A
S214404A6001F070F906460F4602460B464046494658
S214404A7000F0B4FFCDE9060102460B4640464946E3
S214404A8000F0ACFF32463B4600F0A8FF52A3D3E905
S214404A90002306460F46DDE9040101F053F932468D
S214404AA03B4600F09BFFDDE90689CDE90201024660
S214404AB00B464046494600F091FF0B46C1F30A5765
S214404AC00E460999CF1B0246312F8346CAE900237A
S214404AD07ADD43A3D3E90023DDE9040101F032F98E
S214404AE006460F4602460B4640464946CDE90689ED
S214404AF000F074FF02460B4680468946DDE9060113
S214404B0000F06CFF32463B4600F068FF36A3D3E920
S214404B10002306460F46DDE9040101F013F932464C
S214404B203B4600F05BFF02460B46CDE9022334E7E6
S214404B3000F056FF304B9F4204460D4626D02CA32D
S214404B40D3E9002300F04CFF02460B46CAE9002397
S214404B502946204600F042FF25A3D3E9002300F073
S214404B603FFF4FF0FF35CAE90201B7E6DAF8042006
S214404B70DAF80C3002F1004203F100434542CAF82D
S214404B800420CAF80C30A9E6032392E610A3D3E922
S214404B90002300F025FF10A3D3E900230D4604466A
S214404BA000F01EFF02460B46CAE90023294620466F
S214404BB000F014FF08A3D3E9002300F011FF4FF0E4
S214404BC0FF35CAE9020189E6DDE90689EFE600BF5E
S214404BD00000601A61B4D03D7370032E8A19A33B5F
S214404BE00000002E8A19A33BC14920259A837B39B1
S214404BF03163621A61B4D03DFB21F93F00000000EA
S214404C002DE9F04F21F00046B6F1795F85B00C46AD
S214404C1092469B4605466BDA01F02EFB002800F0D4
S214404C20E8802A4623462846214601F08BF874A39E
S214404C30D3E900238046894601F084F872A3D3E97D
S214404C40002300F0CDFE42464B4601F07BF870A3B1
S214404C50D3E9002300F0C2FE42464B4601F072F80C
S214404C606DA3D3E9002300F0BBFE42464B4601F05D
S214404C7069F86BA3D3E9002300F0B0FE42464B46EA
S214404C8001F060F868A3D3E9002300F0A9FE42468D
S214404C904B4601F057F8CDE900010022644B4046F0
S214404CA0494601F04FF8DDE9002306460F464046E8
S214404CB0494601F047F85246804689465B462846B4
S214404CC0214601F03FF802460B464046494600F072
S214404CD085FE02460B463046394600F07FFE0246C9
S214404CE00B460020534900F079FE05B0BDE8F08F32
S214404CF002460B4601F026F841A3D3E9002380463E
S214404D00894601F01FF840A3D3E9002300F068FE6F
S214404D1042464B4601F016F83DA3D3E9002300F087
S214404D205DFE42464B4601F00DF83BA3D3E9002317
S214404D3000F056FE42464B4601F004F838A3D3E94D
S214404D40002300F04BFE42464B4600F0FBFF36A3E6
S214404D50D3E9002300F044FE4B46424600F0F2FF03
S214404D60354B9E42CDE9000197DD344B9E424FF0D5
S214404D70000238DCA6F5001300202E4916461F46D2
S214404D8000F02CFECDE902010022294B4046494660
S214404D9000F0D8FF32463B4600F020FEDDE9002317
S214404DA006460F464046494600F0CCFF52468046EF
S214404DB089465B462846214600F0C4FF02460B461D
S214404DC04046494600F00AFE02460B463046394603
S214404DD000F004FE02460B46DDE9020100F0FEFD4F
S214404DE005B0BDE8F08F164B164FCDE902230026DE
S214404DF0CAE71049002005B0BDE8F08FAFF3008049
S214404E00D43888BEE9FAA8BDC4B1B4BD9EEE213EF2
S214404E10AD529C804F7E923E9015CB19A001FA3E33
S214404E207751C1166CC1563F4C5555555555A53F03
S214404E300000E03F0000F03F3233D33F0000E93F40
S214404E400000E73F0000D23F2DE9F04FADF51D7D55
S214404E50794CA69E794D54F8264009942646D41E91
S214404E6085FB0475E417C4EBA50424EAE4741D46E8
S214404E700C93631CA3EB8303013D02EBC30308932F
S214404E802B460D940295651BF41804900A9116D48F
S214404E902C44013422AEA79F08E057F8250000F0C6
S214404EA0EBFE0135A542E6E9020108D0002DF4DA12
S214404EB0013500200021A542E6E90201F6D1099B12
S214404EC0002B31DB099A0C9B74A901EBC20BC3EB98
S214404ED04373029A24A9DB0001EBC20901930DF546
S214404EE0E47A029B002BC0F29081049BA3F1080554
S214404EF0019B4C4609EB030800260027F5E90223F0
S214404F0074E8020100F01EFF02460B463046394662
S214404F1000F066FD444506460F46EFD1EAE90267D3
S214404F20DA4509F10809DCD1099D05F18043023BC9
S214404F309B001A1D10A90A440B440F920E939CAB7B
S214404F4003EBC503002D53E928672BDD9CAB03EB31
S214404F50C504A83C0DF13C0A0DF5E47B0022384B15
S214404F603046394600F0EEFE01F086F900F084FE49
S214404F700022344B8046894600F0E4FE02460B464B
S214404F803046394600F02AFD01F076F974E80223EF
S214404F904AF8040F4946404600F022FD5C45064666
S214404FA00F46DBD1089C30463946224600F08CFC42
S214404FB000224FF07F5306460F4600F0C3FE00F037
S214404FC0FBFB0022204B00F0BDFE02460B4630465F
S214404FD0394600F003FD0F46064601F04DF981467E
S214404FE000F04AFE02460B463046394600F0F6FCD4
S214404FF0002C06460F4640F3EF80691E10AAC4F107
S214405000180352F8212042FA03F000FA03F3D31AA9
S21440501010AAC4F1170842F82130814443FA08F830
S214405020B8F1000F3DDD002D09F1010940F3D682AD
S214405030002214460FA911E0F87C4000ABAAAA2A29
S2144050400000703E0000704100002040C3F18070B8
S2144050500BB108600124013295420DDD51F8043F42
S214405060002CF3D0C3F1FF13013203F57F43954282
S2144050700B604FF00104F1DC089B002B0DDD012B8B
S21440508000F0B280022B08D16A1E10AB10A953F86C
S2144050902230C3F3150341F82230B8F1020F00F076
S2144050A08280002200233046394601F0B3F80028BB
S2144050B000F05E82099B05F1FF3B5B4510DC05F185
S2144050C0804310AA013B0F9802EB8303002253F85B
S2144050D00419834242EA0102F9D1002A40F0B28024
S2144050E0099B10AA013B52F82330002B40F07482F3
S2144050F00E9A012352F8041901330029FAD0E91810
S2144051006A1C8A420B9149DC0D990C985118DB00B9
S21440511001F180410593A79B05440139E80003EB64
S214405120810A24ABD20003EB000B74AB134401930B
S214405130A2F10803069007934FF000095AF8040FAF
S21440514000F09AFD029B002BEBE8020128DB069B51
S21440515003EB0904079B09EB030824AB1C44984463
S214405160049B0026A3F108050027F5E9022374E80E
S214405170020100F0E7FD02460B463046394600F095
S2144051802FFC444506460F46EFD1019BE3E80267F5
S2144051900193059B09F108099945CFD10B9DCEE6B1
S2144051A000260027F1E732463B460020B04900F093
S2144051B015FC06460F46002C3FF473AF089AAC49E0
S2144051C0002000F081FB02460B463046394600F090
S2144051D005FC06460F4664E710D16B1E10AA52F82F
S2144051E023304FEAE3581BE76A1E10AB10A953F86A
S2144051F02230C3F3160341F822304EE700229D4B7F
S21440520001F026F858B980464BE700260027EAE921
S2144052100267DA4509F108097FF463AE84E6002D9B
S21440522009F10109C8BF4FF002083FF701AF324607
S2144052303B4600208E4900F0D1FB4FF00208064660
S2144052400F462EE710AB089A53F82B30CDF8149043
S214405250183ACDF8048008926BB90BF18043013BB5
S21440526010A901EB830353F804190BF1FF3B183ADE
S2144052700029F8D00892089A7D49002000F024FBC7
S214405280BBF1000F04460D46C0F2B8814FEACB038F
S2144052900DF5E87810AA02EB8B0608EB0309049399
S2144052A0043609F1080756F8040D00F0E5FC2246DE
S2144052B02B4600F047FD002267E902016E4B204670
S2144052C0294600F03FFDB84504460D46EBD10DF5A6
S2144052D0987A4B46CDF808A0DDF824A0CDF818B053
S2144052E04FF000099B46BAF1000FC0F22A81DFF862
S2144052F08C815D465CA3D3E900230026002700246A
S21440530003E0A14510DBF8E90223F5E8020100F0CE
S21440531019FD02460B463046394600F061FB013423
S214405320A24506460F46ECDA029B03EBC903ABF1F7
S214405330080BC3E9006772AB5B4509F10109D2D19E
S214405340A69BDDF818B0DDF808A0032B00F283809A
S214405350DFE813F0D500960096000400BBF1000F7E
S21440536040F35681049BCDF808B00AEB0308D8E911
S2144053700067D34658E9029A32463B46484651466D
S21440538000F02EFB04460D4602460B464846514664
S21440539000F024FB32463B4600F022FBC8E9000101
S2144053A068E90245C34526462F46E3D1DA46DDF88E
S2144053B008B0BBF1010F40F32B81049B5344D3E963
S2144053C00067984699460DF59C7B59E9023430466D
S2144053D0CDE902341A463946234600F001FB04461E
S2144053E00D4602460B46DDE9020100F0F7FA32466A
S2144053F03B4600F0F5FAC9E9000169E90245CB45AC
S21440540026462F46E1D1002308F108081D4650AC39
S2144054101846294678E9022300F0E2FA4445034656
S2144054200D46F5D1019A002A00F0DA800A9FDAF894
S2144054300440DAF80C20DAF80010DAF808003B618D
S21440544005F1004504F1004402F100437D617C60B3
S214405450FB603960B860059B03F007000DF51D7DC5
S214405460BDE8F08FAFF3008000000040FB21F93F1D
S2144054700000F03F0000E03F0000703E087D400026
S214405480049C00260834544433463046194674E992
S214405490022300F0A5FA544506460B46F5D1019A7C
S2144054A030461946002A4FD00A9803F10044324647
S2144054B044600660DAE9000100F090FABBF1000FA4
S2144054C002460B460DDD012410461946FAE9022332
S2144054D000F086FA0134A34502460B46F4DA0199F9
S2144054E009B103F1004319460A9B1046C3E902017D
S2144054F0059B03F007000DF51D7DBDE8F08F049B6E
S214405500002208339A441346104619467AE9022385
S21440551000F066FA0BF1FF3BBBF1FF3F02460B463D
S214405520F2D1019909B103F1004319460A9B10468E
S214405530C3E90001059B03F007000DF51D7DBDE89E
S214405540F08F00260027EFE60A9B3246C3E90001AB
S2144055500B46DAE9000100F041FABBF1000F0246C3
S2144055600B46B0DC19460A9B1046C3E90201BFE76A
S214405570089BCDF814905A4230463946CDF8048000
S21440558000F0A2F900222C4B06460F4600F060FEC3
S214405590002840D00022294B3046394600F0D2FB46
S2144055A000F06AFE044600F067FB0022224B00F043
S2144055B0C9FB0B4602463946304600F00FFA00F06B
S2144055C05BFE089B183305F1010B089310AB43F8BC
S2144055D0250043F82B404EE6012390E500244BE59A
S2144055E018462946DAE90023DAE902450A9FC7E960
S2144055F00401C7E90023C7E902452CE7A69B032B15
S2144056003FF629AFDFE803F0151010020DF5987A43
S21440561000231D4606E73046394600F02DFE10AB07
S214405620AB4643F8250026E6002633460DF5987A25
S21440563035E70022134674E7000070410000703ED4
S2144056402DE9F04F21F00046B6F1795F85B00C4663
S21440565090469946054604DA00F00EFE002800F013
S21440566085802A4623462846214600F06BFB0646A0
S2144056700F4602460B462846214600F063FB3EA3F3
S214405680D3E9002382468B463046394600F05AFB23
S2144056903BA3D3E9002300F0A1F932463B4600F095
S2144056A051FB39A3D3E9002300F09AF932463B4632
S2144056B000F048FB36A3D3E9002300F08FF93246CA
S2144056C03B4600F03FFB34A3D3E9002300F088F9C3
S2144056D00E9BCDE900019BB30022334B4046494622
S2144056E000F030FBDDE90023CDE902015046594683
S2144056F000F028FB02460B46DDE9020100F06EF999
S21440570032463B4600F01EFB42464B4600F066F9EA
S21440571023A3D3E9002306460F465046594600F0D9
S21440572011FB02460B463046394600F059F9024610
S2144057300B462846214600F051F905B0BDE8F08FEB
S21440574002460B463046394600F0FCFA14A3D3E92D
S214405750002300F043F952465B4600F0F3FA2A462F
S214405760234600F03DF905B0BDE8F08F28462146B7
S21440577005B0BDE8F08F00BF7CD5CF5A3AD9E53D9D
S214405780EB9C2B8AE6E55A3E7DFEB157E31DC73EAD
S214405790D561C119A0012A3FA6F810111111813F09
S2144057A0495555555555C53F0000E03F21F000414D
S2144057B0704700BF00000000C1F30A522DE9F843CD
S2144057C0A2F2FF36132E0B460D4604468846074681
S2144057D01CDC002E3FDB3A4A42FA06F901EA09028F
S2144057E00243864617D034A3D3E9002300F0F8F8E6
S2144057F00022002300F036FD20B1002D40DB28EAD1
S2144058000905002738462946BDE8F883332E06DDCD
S214405810B6F5806F2FD020461946BDE8F883A2F231
S21440582013424FF0FF3929FA02F910EA090FF2D075
S21440583021A3D3E9002300F0D3F80022002300F090
S21440584011FD0028DED0002D20DB454627EA09075B
S21440585038462946D8E718A3D3E9002300F0C0F815
S2144058600022002300F0FEFC0028CBD0002D18DBE1
S21440587000273D46C6E702460B4600F0B1F8CCE7A7
S2144058804FF4801343FA06F6B044B8E7142E10D00F
S2144058900123C6F1340603FA06F6371928BF9844A2
S2144058A0D3E725F00042074B224318BF1D4600278A
S2144058B0A8E705F10108C8E79C7500883CE4377EF8
S2144058C0FFFF0F000000F0BFF8B5C1F30A560446CC
