S0120000526F626F744E6F4153462E7372656375
S21440000098130020D53D4000593E4000593E4000E0
S214400010593E4000593E4000593E40000000000016
S214400020000000000000000000000000593E4000B4
S214400030593E400000000000593E4000593E4000F6
S214400040593E4000593E4000593E4000593E40000F
S214400050593E4000593E4000593E400000000000D6
S214400060593E4000593E4000593E4000593E4000EF
S214400070593E4000593E4000593E4000593E4000DF
S21440008011044000593E400000000000593E400028
S214400090593E4000593E4000593E4000B93A400063
S2144000A0593E4000593E4000593E4000593E4000AF
S2144000B0593E4000593E4000593E4000593E40009F
S2144000C010B5054C237833B9044B13B10448AFF34D
S2144000D000800123237010BD700400200000000043
S2144000E0D87840000C4B43B10C480D4910B5AFF3DF
S2144000F000800C48036823B910BD0A48036833B92A
S2144001007047094B002BF7D0BDE810401847064B08
S214400110002BF5D0184700BF00000000D8784000FC
S21440012074040020D87840000000000080B483B0FB
S21440013000AF0346FB71084997F907305B09FA7927
S21440014002F01F02012000FA02F241F8232000BF0D
S2144001500C37BD4680BC704700E100E090B597B0D4
S21440016002AF3B1D83E807007B68FB643B7A87F859
S2144001704B30FB687B6497F84B30012B14D0102B28
S21440018032D0002B00D030E000233B7407F1100241
S2144001900123009313464FF6FE724FF6FF704FF062
S2144001A00001144CA04720E00E20134B984703460E
S2144001B0A7F8423001233B74B7F842301B0A9BB283
S2144001C0DBB27B74B7F84230DBB2BB7407F1100287
S2144001D00323009313464FF6FE724FF6FF704FF020
S2144001E00001044CA04700E000BF00BF5437BD46A6
S2144001F090BD00BF29074000513B400080B58AB003
S21440020000AF3B1D83E807007B683B623B7AFB7789
S214400210FB68BB61FB7F883B1B2B00F29A8001A2E8
S21440022052F823F05303400053034000530340006A
S2144002305303400053034000530340005303400021
S21440024053034000950240005303400053034000D0
S2144002505303400053034000530340005303400001
S21440026053034000530340005303400053034000F1
S21440027053034000530340005303400053034000E1
S21440028053034000530340005303400053034000D1
S21440029053034000324A3B6A136007F1170318467F
S2144002A0304B984707F1170318462E4B984707F1EF
S2144002B0170318462B4B984707F117031846294B48
S2144002C0984707F117031846264B984707F1170338
S2144002D01846244B984707F117031846214B984772
S2144002E007F1170318461F4B984707F117031846A0
S2144002F01C4B984707F1170318461A4B984707F1C7
S21440030017031846174B984707F117031846154B1F
S21440031098470346002B1ED1134B1B68F97D0122DC
S2144003201846124B984701237B620BE007F11703F0
S21440033018460C4B9847FB7D18460D4B98477B6AF2
S21440034001337B62BB69A3F10C027B6A9A42EDDA09
S21440035001E000BF00E000BF00BF2837BD4680BDBB
S214400360840F002039094000C8040020090C4000D2
S214400370510B400080B500AF1A4A1A4B1B6843F435
S21440038080331360184A184B1B6843F4406313606D
S214400390164A164B1B6843F400631360144B40F236
S2144003A08B221A60134A134B1B6843F48673136000
S2144003B0104A104B1B6843F0500313600E4A0E4B16
S2144003C01B6843F00103136010200C4B98470C4BFE
S2144003D098470C4B98470C4B98470C4B984700BF98
S2144003E080BD00BF10040E4004100E400480044040
S2144003F02080044000800440088004402D014000D6
S21440040081084000A9094000250B4000DD0B400054
S21440041080B582B000AF5A4B1B68012B40F0AB80D2
S214400420584B1B68FB71FB797E2B07D1564B1B78CC
S214400430002B03D0544B00221A7011E0FB797D2B21
S21440044003D1524B01221A700AE0504B1B78002B06
S21440045006D0FB7983F02003FB714C4B00221A70C8
S2144004604A4B1B7883F00103DBB2002B00F08380FD
S214400470454B1B78052B7ED801A252F823F000BFCF
S21440048099044000B9044000C9044000D704400025
S2144004900305400035054000FB797E2B68D13C4B78
S2144004A000221A603B4B00221A603B4B00221A6027
S2144004B0354B01221A705BE0FB791B02344A13600D
S2144004C0314B02221A7056E0FB79314A13602E4BAC
S2144004D003221A704FE0FB79304A1360FA792E4BAC
S2144004E01B6813442C4A13602A4B1B680133294A65
S2144004F013602B4B1B682B4A1360234B04221A7045
S21440050039E0FB791846284B9847FA79224B1B6806
S2144005101344214A13601F4B1B6801331D4A136066
S2144005201C4B1A681A4B1B689A4223D1164B05225D
S2144005301A701FE0FA79184B1B681344164A13606A
S214400540154B1B68DBB2144A1360134B1B68FF2B1A
S2144005500AD1144B1868114B1B68D9B20D4B1B6857
S214400560013B1A46114B9847074B00221A7002E08F
S21440057000BF00E000BF00BF0837BD4680BD00BFDB
S21440058010800440188004408C0400208D04002015
S2144005909004002094040020980400209C0400202E
S2144005A0900F0020A0040020AD084000D509400070
S2144005B080B483B000AF0346FB7100BF064B1B6898
S2144005C003F00203002BF9D0044AFB79136000BF06
S2144005D00C37BD4680BC7047148004401C800440E5
S2144005E02DE9F0438BB000AF786039606A4691469B
S2144005F03A687A837A8B02F1040808F1FF327A610E
S214400600424611464FF00002D60046EA5176CD00EB
S214400610424611464FF00002D40044EA5174CB00E3
S21440062043460733DB08DB00ADEB030D6B46003378
S2144006303B61002387F827303B697E221A707B8B0C
S214400640DB099BB2DAB23B695A707B8BDAB23B6904
S2144006509A703B6903337A8B79681846304B9847D3
S21440066000233B620BE03B6A7A6813441A7897F89B
S2144006702730134487F827303B6A01333B627A8B36
S2144006803B6A9A42EFDC7B8B033397F82720D243B2
S214400690D1B23A69D1544346FB733B691B7818463E
S2144006A0204B98470123FB612FE03A69FB691344CE
S2144006B01B787E2B11D03A69FB6913441B787D2B3F
S2144006C00BD03A69FB6913441B78112B05D03A6965
S2144006D0FB6913441B78132B0DD17D20114B984793
S2144006E03A69FB6913441B7883F02003DBB2184653
S2144006F00C4B984706E03A69FB6913441B7818464A
S214400700084B9847FB690133FB61FA7BFB699A42C9
S214400710CBDCCD4600BF2C37BD46BDE8F08300BFDE
S21440072061654000B10540002DE9F04F95B000AF3F
S214400730C7E91001BB631346FB876B467B6097F89F
S214400740783003F10E02531EFB6413464FF000044C
S214400750E60046EA5376DD0013464FF000044FEAC3
S214400760C40949EA53794FEAC30813460733DB08FE
S214400770DB00ADEB030D6B460033BB64BA6C102355
S2144007801370BA6C96235370D7E91034220E3A622F
S21440079000227A6297F82030BA6C9370D7E910340A
S2144007A0220CBA610022FA613A7EBB6CDA70D7E955
S2144007B01034220A3A6100227A613A7CBB6C1A7184
S2144007C0D7E910342200BA600022FA603A7ABB6C4D
S2144007D05A71D7E910341A0E3A633A6B42EA042249
S2144007E03A63220E7A6397F83020BB6C9A71D7E949
S2144007F010341A0CBA62BA6A42EA0442BA62220C4E
S214400800FA6297F82820BB6CDA71D7E910344FEAC1
S214400810132A4AEA046A4FEA142B5FFA8AF2BB6C40
S2144008201A7297F84020BB6C5A72FB8F1B0A9BB219
S214400830DAB2BB6C9A72FB8FDAB2BB6CDA72BB6C04
S21440084000221A73BB6C00225A73BB6C0E3397F8A7
S2144008507820B96B1846084B9847BA6C97F87830AA
S2144008600E3319461046054B9847D7F804D000BFBC
S2144008705437BD46BDE8F08F61654000E105400055
S21440088080B400AF064B00221A60064B00221A6066
S214400890054B00221A6000BFBD4680BC704700BFB3
S2144008A0900F0020840F0020940F002080B483B067
S2144008B000AF0346FB711B4B1B6803F57A721A4B5D
S2144008C083FB02131912D317CB1A40F2E93101FB0E
S2144008D003F3D31A154A1268934202D14FF0FF33FE
S2144008E01AE0124B1B681249FA79CA540F4B1B6820
S2144008F05A1C0D4B83FB02131912D317CB1A40F226
S214400900E93101FB03F3D31A084A1360094B1B680D
S2144009100133084A1360002318460C37BD4680BC96
S214400920704700BF840F00209F747841900F0020CE
S214400930D0040020940F002080B483B000AF7860CD
S214400940144B1A68144B1B689A4202D14FF0FF337F
S2144009501BE0114B1B68114AD25C7B681A700E4B29
S2144009601B685A1C0E4B83FB02131912D317CB1A63
S21440097040F2E93101FB03F3D31A074A1360094BEF
S2144009801B68013B074A1360002318460C37BD46D8
S21440099080BC7047900F0020840F0020D0040020B9
S2144009A09F747841940F002080B400AF064B00221D
S2144009B01A60064B00221A60054B00221A6000BFE0
S2144009C0BD4680BC704700BF880F00208C0F0020BB
S2144009D0C004002080B485B000AFF8600B467A6053
S2144009E0FB722A4B1B6803F13202294B83FB02132E
S2144009F013445911D317C91A0B465B000B4419010F
S214400A000B44D11A234B1B68994202D14FF0FF3357
S214400A1037E0204B1A68204913465B0013449B007E
S214400A200B44FA681A601B4B1A681B4913465B0056
S214400A3013449B000B440433FA7A1A70154B1A6819
S214400A40154913465B0013449B000B4408337A68F1
S214400A501A60104B1B685A1C0D4B83FB0213134441
S214400A605911D317C91A0B465B000B4419010B44A6
S214400A70D11A084B1960094B1B680133074A1360AB
S214400A80002318461437BD4680BC70478C0F0020A4
S214400A90A1A0A0A0880F0020BC080020C004002011
S214400AA080B483B000AF7860194B1A68194B1B6846
S214400AB09A4202D14FF0FF3324E0164B1A6878680A
S214400AC0154913465B0013449B00CA18034607CAE1
S214400AD083E807000F4B1B685A1C104B83FB02131E
S214400AE013445911D317C91A0B465B000B4419011E
S214400AF00B44D11A074B1960094B1B68013B084A47
S214400B001360002318460C37BD4680BC704700BFB4
S214400B10880F00208C0F0020BC080020A1A0A0A0B9
S214400B20C004002080B400AF064B00221A60064B7B
S214400B3000221A60054B00221A6000BFBD4680BCEA
S214400B40704700BFC8040020240B0020C4040020C7
S214400B5080B483B000AF0346FB711B4B1B6803F5A4
S214400B60FA721A4B83FB02139911D317CB1A40F231
S214400B70F51101FB03F3D31A154A1268934202D1CA
S214400B804FF0FF331AE0124B1B681249FA79CA54E9
S214400B900F4B1B685A1C0D4B83FB02139911D3173E
S214400BA0CB1A40F2F51101FB03F3D31A084A13603F
S214400BB0094B1B680133084A1360002318460C375C
S214400BC0BD4680BC704700BF240B002041DDB320EB
S214400BD0C80400208C0D0020C404002080B400AF60
S214400BE0064B00221A60064B00221A60054B002274
S214400BF01A6000BFBD4680BC704700BF200B002077
S214400C00CC040020BC04002080B485B000AFF8605F
S214400C100B467A60FB722A4B1B6803F13202294B63
S214400C2083FB021313445911D317C91A0B465B00B2
S214400C300B4419010B44D11A234B1B68994202D12D
S214400C404FF0FF3337E0204B1A68204913465B00CD
S214400C5013449B000B44FA681A601B4B1A681B49E6
S214400C6013465B0013449B000B440433FA7A1A7015
S214400C70154B1A68154913465B0013449B000B44FA
S214400C8008337A681A60104B1B685A1C0D4B83FB5E
S214400C90021313445911D317C91A0B465B000B4471
S214400CA019010B44D11A084B1960094B1B680133D4
S214400CB0074A1360002318461437BD4680BC704769
S214400CC0CC040020A1A0A0A0200B0020280B0020D0
S214400CD0BC04002080B483B000AF7860194B1A681B
S214400CE0194B1B689A4202D14FF0FF3324E0164B53
S214400CF01A687868154913465B0013449B00CA1867
S214400D00034607CA83E807000F4B1B685A1C104B64
S214400D1083FB021313445911D317C91A0B465B00C1
S214400D200B4419010B44D11A074B1960094B1B6839
S214400D30013B084A1360002318460C37BD4680BC6A
S214400D40704700BF200B0020CC040020280B00205A
S214400D50A1A0A0A0BC04002080B500AF114A114B52
S214400D601B6843F0040313600F4A0F4B1B6843F0A5
S214400D70040313600D4A0D4B1B6843F004031360D5
S214400D80042202216B200A4B9847662203216B20DF
S214400D90074B9847FA2205216B20054B984700BF22
S214400DA080BD00BF00100E4010100E4034100E40A4
S214400DB08D3C400080B483B000AF78600023184676
S214400DC00C37BD4680BC704790B585B000AF034633
S214400DD0FB71294B93F82430002B1CD0FB79002B59
S214400DE002D00223FB7301E00023FB73224B5B68B7
S214400DF01878214B1B68597C07F10F0301221F4CC2
S214400E00A0470346002B02D04FF0FF3330E0FA7B7A
S214400E10194B5A742BE0184B9B7A002B02D14FF09B
S214400E20FF3325E0FB79002B05D0134B5B7C002B72
S214400E3001D000231CE0FB79002B02D00123FB737A
S214400E4001E00023FB730C4B5B6818780A4B1B6869
S214400E50597C07F10F030122084CA0470346002B9C
S214400E6002D04FF0FF3303E0FA7B034B5A74002363
S214400E7018461437BD4690BD000000201D3940007E
S214400E8090B585B000AF786080233B725F4B5B685F
S214400E9018785E4B1B68597D07F1080301225C4CAD
S214400EA0A0470346002B02D04FF0FF33A9E0642052
S214400EB0584B984700233B72544B5B681878534B0B
S214400EC01B68597D07F108030122514CA047034691
S214400ED0002B02D04FF0FF3393E04C4B0022DA74E5
S214400EE048233B72494B5B681878484B1B68197A15
S214400EF007F108030122464CA0470346002B02D0C8
S214400F004FF0FF337DE0414BFF229A723F4BFF226A
S214400F101A723E4BFF225A723C4BFF22DA723B4B10
S214400F204FF6FF72DA81394BFF221A74374BFF2295
S214400F309A74364B4FF6FF721A85344B01221A7359
S214400F40324B012283F82220304B002283F82320A4
S214400F502E4B00225A752D4B00221A750C2200216A
S214400F602D482E4B9847294B002283F82420274BA8
S214400F70002283F82520254B0022DA844FF4FA60BD
S214400F80274B98470346002B02D04FF0FF3338E0FC
S214400F900220244B98470346002B02D04FF0FF33E5
S214400FA02FE02A20204B98470346002B02D04FF0D4
S214400FB0FF3326E032201D4B98470346002B02D0D5
S214400FC04FF0FF331DE00020194B98470346002B97
S214400FD002D04FF0FF3314E07B68002B02D07868D5
S214400FE0144B9847144B98470A20144B984703468F
S214400FF0002B02D04FF0FF3303E00020104B984701
S214401000002318461437BD4690BD00BF00000020A0
S2144010101D394000ED38400016000020956640001F
S214401020F913400015154000E9154000B916400078
S2144010302D184000B50D4000E51F4000A9174000A0
S214401040D918400090B585B000AF0346FB71FB79D8
S214401050282B02D94FF0FF3385E0FB79002B1CD1BB
S2144010600020434B984700233B7307237B73414B39
S2144010705B6818783F4B1B68597D07F10C030222CA
S2144010803D4CA0470346002B02D04FF0FF336AE0AA
S214401090384B00221A75002365E00120344B9847F0
S2144010A0FB79012B02D102233B732BE0FB79022B09
S2144010B002D103233B7325E0FB79052B02D804239A
S2144010C03B731FE0FB790A2B02D805233B7319E0DC
S2144010D0FB79142B02D806233B7313E0FB79282BAD
S2144010E002D807233B730DE0FB79502B02D8082328
S2144010F03B7307E0FB79A02B02D809233B7301E042
S2144011000A233B731B4B5B6818781A4B1B68597A4B
S21440111007F10C030122184CA0470346002B02D0CF
S2144011204FF0FF331FE020233B73124B5B68187869
S214401130104B1B68597D07F10C0301220E4CA0474B
S2144011400346002B02D04FF0FF330CE0094B082239
S2144011509A72084B00221A73064B01221A75002019
S214401160064B9847002318461437BD4690BD00BF2F
S2144011703D1C4000000000201D3940002D18400056
S21440118090B583B000AF7E4B9B7A002B02D14FF0D8
S214401190FF33F1E00023FB71794B5B681878784B9E
S2144011A01B68597CFB1D0122764CA0470346002B4A
S2144011B002D04FF0FF33DFE0714B5B681878704B1E
S2144011C01B685979FB1D01226E4CA0470346002B35
S2144011D002D04FF0FF33CFE0694B5B681878684B1E
S2144011E01B681979FB1D0122664CA0470346002B5D
S2144011F002D04FF0FF33BFE0614B93F82430002B12
S2144012005CD00C23FB715E4B5B6818785C4B1B68AC
S2144012101979FB1D01225B4CA0470346002B02D0E8
S2144012204FF0FF33A8E03220574B9847C023FB715E
S214401230534B9B7A03F00103002B04D0FB7943F019
S2144012402003DBB2FB714E4B5B6818784C4B1B6837
S2144012501979FB1D01224B4CA0470346002B02D0B8
S2144012604FF0FF3388E0464B5B7C002B02D00223D6
S214401270FB7101E00023FB71414B5B681878404BE3
S2144012801B68597CFB1D01223E4CA0470346002BA1
S21440129002D04FF0FF336FE00023FB71384B5B68A2
S2144012A01878374B1B685979FB1D0122354CA047EF
S2144012B00346002B5FD04FF0FF335DE00423FB7105
S2144012C02F4B5B6818782E4B1B681979FB1D012243
S2144012D02C4CA0470346002B02D04FF0FF334BE088
S2144012E0274B9B7C002B05D1254B9B7A03F00103B3
S2144012F0002B02D14023FB7101E06023FB71204BA1
S2144013005B6818781E4B1B681979FB1D01221D4C23
S214401310A0470346002B02D04FF0FF332CE032208C
S214401320194B9847164B5B7C002B02D00123FB7170
S21440133001E00023FB71124B5B681878104B1B686A
S214401340597CFB1D01220F4CA0470346002B02D0C0
S2144013504FF0FF3310E00A4B5B681878084B1B6869
S21440136059790A4B0122074CA0470346002B02D06E
S2144013704FF0FF3300E0002318460C37BD4690BDC3
S214401380000000201D394000ED38400010000020CD
S21440139080B483B000AF7860164B1B7A032B1ED800
S2144013A001A252F823F000BFB9134000C113400019
S2144013B0CB134000D51340007B68FA221A8012E017
S2144013C07B684FF4FA721A800DE07B684FF47A72AD
S2144013D01A8008E07B684FF4FA621A8003E07B6864
S2144013E000221A8000BF002318460C37BD4680BC3A
S2144013F0704700BF0000002090B585B000AF0346A0
S214401400FB80254B9B7A002B02D14FF0FF333FE009
S214401410FB88B3F5FA7F0FD0B3F5FA7F02DCFA2BE0
S21440142007D012E0B3F57A7F09D0B3F5FA6F09D04A
S2144014300BE00023FB730BE00823FB7308E010234C
S214401440FB7305E01823FB7302E04FF0FF331FE009
S214401450114B1A7AFB7BDB08DBB29A4201D10023A0
S21440146016E00D4B5B6818780B4B1B68997907F1B3
S2144014700F030122094CA0470346002B02D04FF031
S214401480FF3305E0FB7BDB08DAB2034B1A7200231E
S21440149018461437BD4690BD000000201D39400058
S2144014A080B483B000AF7860194B5B7A032B1BD8AF
S2144014B001A252F823F000BFC9144000D1144000E6
S2144014C0D9144000E11440007B6802221A700EE0F6
S2144014D07B6804221A700AE07B6808221A7006E0CD
S2144014E07B6810221A7002E04FF0FF330AE0084B88
S2144014F0DB7C002B05D07B681B785B00DAB27B6810
S2144015001A70002318460C37BD4680BC704700BF93
S2144015100000002090B585B000AF0346FB71304B0D
S2144015209B7A002B02D14FF0FF3354E0FB79023B0D
S2144015300E2B2DD801A252F823F000BF791540009B
S214401540911540007F1540009115400091154000D0
S21440155091154000851540009115400091154000BA
S214401560911540009115400091154000911540009E
S214401570911540008B1540000023FB730BE00823B9
S214401580FB7308E01023FB7305E01823FB7302E0AF
S2144015904FF0FF331FE0124B5A7AFB7BDB08DBB27F
S2144015A09A4201D1002316E00D4B5B6818780C4B2D
S2144015B01B68D97907F10F0301220A4CA04703465E
S2144015C0002B02D04FF0FF3305E0FB7BDB08DAB29E
S2144015D0034B5A72002318461437BD4690BD00BFD1
S2144015E0000000201D39400090B585B000AF03468E
S2144015F0FB80234B9B7A002B02D14FF0FF333BE01E
S214401600FB88BB2B02D90123FB7319E0FB88612BB7
S21440161002D90223FB7313E0FB88292B02D903234C
S214401620FB730DE0FB88132B02D90423FB7307E002
S214401630FB88092B02D90523FB7301E00623FB73C5
S2144016400F4BDA7AFB7B9A4201D1002314E00C4B15
S2144016505B6818780A4B1B68997807F10F030122DC
S214401660084CA0470346002B02D04FF0FF3303E060
S214401670FA7B034BDA72002318461437BD4690BDFA
S214401680000000201D39400080B483B000AF786071
S214401690084B93F82430002B02D04FF0FF3304E081
S2144016A0044BDA897B681A80002318460C37BD46FF
S2144016B080BC70470000002090B585B000AF034660
S2144016C0FB80344B9B7A002B02D14FF0FF335CE01B
S2144016D0304B93F82430002B02D04FF0FF3354E0C9
S2144016E02C4B1B7D002B0FD0FB88002B09D0FB8892
S2144016F0282B06D8FB88DBB21846274B9847002392
S21440170043E00020244B9847FB88032B02D8042351
S214401710FB8006E0FB88B3F57A7F02D94FF47A73F4
S214401720FB80FB884FF47A7292FBF3F3DBB2013B0B
S214401730DBB2FB73174B5B681878164B1B685978FF
S21440174007F10F030122154CA0470346002B02D099
S2144017504FF0FF3319E0FB7B01334FF47A7292FB74
S214401760F3F39AB20B4BDA810A4B1B8D642B28BFDE
S21440177064239BB218460A4B9847064BDB895B08A6
S2144017809BB21846074B9847002318461437BD4669
S21440179090BD00BF00000020451040001D394000AD
S2144017A0A9174000E915400090B585B000AF034644
S2144017B0FB80FB88002B07D01A4BDB89FA889A42BD
S2144017C002D8FB88642B02D94FF0FF3326E0154B36
S2144017D0DA89FB88B2FBF3F39BB2DBB2013BDBB2A8
S2144017E0FB73104B5B6818780E4B1B6893F82410FD
S2144017F007F10F0301220C4CA0470346002B02D0F2
S2144018004FF0FF330AE0074BDB891A46FB7B013378
S21440181092FBF3F39AB2034B1A850023184614370B
S214401820BD4690BD000000201D39400080B584B004
S21440183000AF0346FB710023FB60FB7923F00103F6
S214401840FB71224B93F82430002B01D0002338E064
S2144018501E4B9B7A002B02D14FF0FF3331E01B4BDF
S2144018601B7CFB72194B9A7AFB791340DAB2174B02
S2144018701A74164B1B7CFA799A4203D04FF0FF330A
S214401880FB6001E00023FB60FB79002B03D10F4B8C
S2144018901B7D002B03D001200D4B984702E0002013
S2144018A00B4B9847FB79002B0AD00A4B98470346C8
S2144018B0002B05D0054AFB7A13744FF0FF3300E047
S2144018C0FB6818461037BD4680BD00BF00000020AC
S2144018D0C90D40008111400090B585B000AF034669
S2144018E0FB71FB7903F07003002B02D00123FB73DE
S2144018F007E0FB79002B02D00023FB7301E0402376
S214401900FB73634B5B681878614B1B68597D07F126
S2144019100F0301225F4CA0470346002B05D05C4BCB
S21440192000229A724FF0FF33AEE0FB7B23F0400379
S214401930DAB2574B1A730023FB73FB7903F040036C
S214401940002B04D1FB7B43F00403DBB2FB73FB7933
S21440195003F02003002B04D1FB7B43F00203DBB2F1
S214401960FB73FB7903F01003002B04D1FB7B43F0A1
S2144019700103DBB2FB73FB7903F00803002B04D1B1
S214401980FB7B43F03803DBB2FB73414B5B68187854
S2144019903F4B1B68997D07F10F0301223D4CA04742
S2144019A00346002B05D03A4B00229A724FF0FF3385
S2144019B06AE0FB79002B05D0FB79082B02D000208B
S2144019C0354B9847324B5B681878314B1B68197912
S2144019D007F10E030122314CA0470346002B02D0EC
S2144019E04FF0FF3350E0FB7903F00103002B07D0A4
S2144019F01123FB73BB7B43F02003DBB2BB7306E0D3
S214401A001023FB73BB7B23F02003DBB2BB73204B5E
S214401A1093F82430002B05D0BB7B63F07F03DBB20A
S214401A20BB7304E0BB7B03F07F03DBB2BB73184B96
S214401A305B681878164B1B6893F8261007F10F035F
S214401A400122144CA0470346002B02D04FF0FF3330
S214401A501AE00F4B5B6818780D4B1B68197907F135
S214401A600E0301220B4CA0470346002B02D04FF03A
S214401A70FF3309E0064AFB799372054B00221A753C
S214401A803220074B9847002318461437BD4690BD72
S214401A90000000201D3940003D1C4000D939400060
S214401AA0ED38400090B585B000AF0346FB715F4B04
S214401AB09B7CFA799A4201D10023B2E0FB79002B55
S214401AC050D05A4B5B681878584B1B68197907F109
S214401AD00F030122564CA0470346002B02D04FF07E
S214401AE0FF339EE0FB7B23F02003DBB2FB734F4BC0
S214401AF05B6818784D4B1B68197907F10F03012274
S214401B004C4CA0470346002B02D04FF0FF3388E0F2
S214401B100320494B98470223FB73444B93F82230EB
S214401B20002B04D0FB7B63F07F03DBB2FB733F4BA1
S214401B3093F82330002B04D0FB7B43F03003DBB21A
S214401B40FB733A4B5B681878384B1B68D97D07F1B6
S214401B500F030122374CA0470346002B5DD04FF0C1
S214401B60FF335EE0314B5B681878304B1B68197961
S214401B7007F10F0301222E4CA0470346002B02D04C
S214401B804FF0FF334DE0294B9B7A03F00103002BC7
S214401B9005D0FB7B43F02003DBB2FB7304E0FB7B0A
S214401BA023F02003DBB2FB73204B5B6818781F4B97
S214401BB01B68197907F10F0301221E4CA047034604
S214401BC0002B02D04FF0FF332BE003201A4B9847F0
S214401BD0164B93F82230002B02D08023FB7301E093
S214401BE00023FB73114B93F82330002B04D0FB7B70
S214401BF043F03003DBB2FB730C4B5B6818780B4B3F
S214401C001B68D97D07F10F0301220A4CA047034603
S214401C10002B02D04FF0FF3303E0044AFB79937465
S214401C20002318461437BD4690BD00BF0000002074
S214401C30D93940001D394000ED38400090B585B098
S214401C4000AF0346FB711E4B93F82330FA799A4255
S214401C5001D1002330E0FB79002B02D03023FB7308
S214401C6001E00023FB73164B9B7C002B04D0FB7BD0
S214401C7043F00203DBB2FB73114B93F82230002B88
S214401C8004D0FB7B63F07F03DBB2FB730C4B5B68DB
S214401C9018780B4B1B68D97D07F10F030122094CBE
S214401CA0A0470346002B02D04FF0FF3304E0044A1F
S214401CB0FB7982F82330002318461437BD4690BD82
S214401CC0000000201D39400090B585B000AF0346A7
S214401CD03A60FB800B46BB803B68002B02D14FF03E
S214401CE0FF333DE0204B9B7A002B02D14FF0FF3371
S214401CF036E0FB881B0A9BB2DBB23B73FB88DBB249
S214401D007B737B7B1A46BB881344174A52685289BA
S214401D10934202DD4FF0FF3322E0134B5B681878A6
S214401D20114B1B68D97E07F10C0302220F4CA047CB
S214401D300346002B02D04FF0FF3311E00A4B5B689E
S214401D401878094B1B68197EBB88DAB23B68074C8B
S214401D50A0470346002B02D04FF0FF3300E000239D
S214401D6018461437BD4690BD000000201D3940007F
S214401D7090B585B000AF03463A60FB800B46BB800B
S214401D803B68002B02D14FF0FF333DE0204B9B7A5F
S214401D90002B02D14FF0FF3336E0FB881B0A9BB284
S214401DA0DBB23B73FB88DBB27B737B7B1A46BB881C
S214401DB01344174A52685289934202DD4FF0FF336C
S214401DC022E0134B5B681878114B1B68D97E07F1ED
S214401DD00C0302220F4CA0470346002B02D04FF0C4
S214401DE0FF3311E00A4B5B681878094B1B68197E75
S214401DF0BB88DAB23B68084CA0470346002B02D0AB
S214401E004FF0FF3300E0002318461437BD4690BD20
S214401E10000000201D394000D939400090B58BB0F5
S214401E2000AFB96011461A460346FB810B46BB819C
S214401E301346FB80374B93F82530002B02D04FF0EB
S214401E40FF3362E0BB68002B02D14FF0FF335CE00B
S214401E500023FB8434E0FA89FB8CD31A102BA8BFEE
S214401E601023BB84FB8CBA681A44B98CFB8C18468A
S214401E70294B98470346002B02D04FF0FF3344E0EF
S214401E8007F11402B98CFB8C1846244B984703463E
S214401E90002B02D04FF0FF3337E0FB8CBA68134478
S214401EA0BA8C07F1140118461D4B98470346002B81
S214401EB002D06FF0010328E0FA8CBB8C1344FB84FD
S214401EC0FA8CFB899A42C6D3BB891B0A9BB2DBB20B
S214401ED03B74BB89DBB27B740E4B5B6818780D4B4A
S214401EE01B68597F07F1100302220E4CA047034699
S214401EF0002B02D04FF0FF3307E0064B012283F859
S214401F002520044AFB88D384002318462C37BD4638
S214401F1090BD00BF00000020C91C4000711D40005D
S214401F20016540001D39400090B585B000AF0346BE
S214401F30FB71264B93F82430FA799A4201D100235C
S214401F4040E0FB79002B27D0204B93F82530002B20
S214401F5002D14FF0FF3335E000201D4B984700205C
S214401F601C4B9847194BDB8C18461B4B9847002355
S214401F70FB73164B5B68187807F10F030122232189
S214401F80164CA047114B012283F824200120104B09
S214401F909847134B984714E000200D4B98470B4B3F
S214401FA01B7CFB73094B5B68187807F10F03012213
S214401FB023210A4CA047054B002283F82420084BD7
S214401FC09847002318461437BD4690BD00000020B1
S214401FD0C90D4000A51A4000B91640001D39400002
S214401FE08111400090B585B000AF01209B4B9847CB
S214401FF00C23FB7310E03B1DF87B01220021984C1C
S214402000A0470346BB60BB68002B02D13B79482BF8
S21440201006D0FB7B0133FB73FB7B0F2BEBD900E039
S21440202000BFFB7B0F2B02D94FF0FF3312E18D4AE6
S214402030FB7B82F82A3010233B718A4B93F82A00A8
S2144020403B1D01220A21884CA0470346002B02D0A4
S2144020504FF0FF33FEE00120844B98471F233B712F
S214402060804B93F82A003B1D01220A217E4CA04754
S2144020700346002B02D04FF0FF33EBE001207B4BB2
S2144020809847784B93F82A003B1D03221021744C46
S214402090A0470346002B02D04FF0FF33DAE03B79EF
S2144020A09BB280339BB21AB26E4B9A857B799BB2B9
S2144020B080339BB21AB26B4BDA85BB799BB28033C6
S2144020C09BB21AB2674B1A8610233B71654B93F846
S2144020D02A003B1D01220A21634CA0470346002BE1
S2144020E002D04FF0FF33B5E00120604B9847002008
S2144020F05A4B984740233B715A4B5B681878594B6C
S2144021001B68997E3B1D0122574CA0470346002B77
S21440211002D04FF0FF339DE0524B93F82A3063F0E5
S2144021207F03DBB23B714F4B5B6818784D4B1B68A7
S214402130997F3B1D01224C4CA0470346002B02D002
S2144021404FF0FF3386E002233B71464B5B681878BE
S214402150444B1B68D97F3B1D0122434CA047034696
S214402160002B02D04FF0FF3374E088233B713D4B89
S2144021705B6818783B4B1B6893F820103B1D012288
S214402180394CA0470346002B02D04FF0FF3361E0A6
S214402190344B93F82A303B71324B5B681878314B9E
S2144021A01B6893F821103B1D01222F4CA047034685
S2144021B0002B02D04FF0FF334CE00A233B71294BF3
S2144021C05B681878274B1B6893F822103B1D01224A
S2144021D0254CA0470346002B02D04FF0FF3339E092
S2144021E081233B711F4B5B6818781E4B1B6893F826
S2144021F023103B1D01221C4CA0470346002B02D057
S2144022004FF0FF3326E011233B71164B5B6818787E
S214402210144B1B6893F826103B1D0122124CA04716
S2144022200346002B02D04FF0FF3313E003233B71ED
S2144022300C4B5B6818780B4B1B6893F827103B1DBC
S2144022400122094CA0470346002B02D04FF0FF3333
S21440225000E0002318461437BD4690BDA51A40003E
S214402260D9394000000000201D394000ED384000BC
S21440227098B500AF4FF48062C823044940F6F63064
S214402280034CA0470346184698BD00BF946A4000DA
S2144022901D1E400080B588B000AF0346FB806D4AE7
S2144022A007F114031188927819809A706A4A07F1E8
S2144022B010031188927819809A70684A07F10C03C7
S2144022C01188927819809A70654A07F10803118838
S2144022D0927819809A70FB8803F0030307F1200276
S2144022E0134413F80C3C3B77FB88DB089BB203F0A7
S2144022F0030307F12002134413F80C3C7B77FB885A
S2144023009B099BB203F0030307F12002134413F822
S2144023100C3CBB77FB8803F0030307F12002134411
S21440232013F8103C3B76FB88DB089BB203F00303B4
S21440233007F12002134413F8103C7B76FB889B0978
S2144023409BB203F0030307F12002134413F8103C3A
S214402350BB7607F11C031A46032140F22640414B48
S21440236098470346002B02D04FF0FF336EE007F14C
S21440237018031A46032140F22A403A4B9847034630
S214402380002B02D04FF0FF3360E007F11C0307F14B
S2144023900C021268114619800233120C1A7007F1AB
S2144023A0180307F108021268114619800233120C0E
S2144023B01A70FB8803F00403002B09D03B7F43F0E0
S2144023C00103DBB23B773B7E43F00103DBB23B7657
S2144023D0FB8803F02003002B09D07B7F43F00103EA
S2144023E0DBB27B777B7E43F00103DBB27B76FB88F8
S2144023F003F48073002B09D0BB7F43F00103DBB2AC
S214402400BB77BB7E43F00103DBB2BB7607F11C0310
S2144024101A4603214FF48860124B98470346002B18
S21440242002D04FF0FF3311E007F118031A4603219C
S21440243040F231400B4B98470346002B02D04FF0FA
S214402440FF3303E0084AFB881381002318462037F1
S214402450BD4680BD8C764000907640009476400025
S21440246098764000C91C4000A404002080B588B07F
S21440247000AF0346FB80204A07F1100310685168FE
S214402480926807C3FB88C82B02D94FF0FF332EE073
S214402490FB88C82292FBF3F39BB2013BFB83FB8B8A
S2144024A01B0A9BB2DBB23B72FB8BDBB27B7207F143
S2144024B008031A46022140F21620104B984703465E
S2144024C0002B02D04FF0FF3311E007F110031A46FD
S2144024D00C2140F6C120094B98470346002B02D0FA
S2144024E04FF0FF3303E0064AFB88938100231846EB
S2144024F02037BD4680BD00BF9C764000C91C4000CA
S214402500A404002080B586B000AF03460A46FB719F
S2144025101346BB80FB7903F00703002B03D0BB8830
S214402520B3F5C86F02D94FF0FF330FE1BA88894B35
S214402530104698470246884B8849104698470346B7
S2144025403B6107F10B031846854B9847FB7A023BE5
S2144025500E2B00F2818001A252F823F0992540000C
S21440256059264000C92540005926400059264000BB
S21440257059264000F925400059264000592640007B
S214402580592640005926400059264000592640000A
S2144025905926400029264000724B4FF08D4138693D
S2144025A0984703461A46704B104698470346FB82A8
S2144025B06C4B6E493869984703461A466A4B104634
S2144025C098470346BB824AE0664B4FF08C413869D9
S2144025D0984703461A46644B104698470346FB8284
S2144025E0604B63493869984703461A465E4B104627
S2144025F098470346BB8232E05A4B4FF08B413869CE
S214402600984703461A46584B104698470346FB825F
S214402610544B58493869984703461A46524B104619
S21440262098470346BB821AE04E4B4FF08A413869C2
S214402630984703461A464C4B104698470346FB823B
S214402640484B4D493869984703461A46464B10460C
S21440265098470346BB8202E04FF0FF3376E0FB8AA2
S2144026601B0A9BB2DBB23B73FB8ADBB27B73BB8A33
S2144026701B0A9BB2DBB2BB73BB8ADBB2FB73FB7934
S21440268003F00103002B1CD007F10C031A4602216D
S2144026904FF4EA70394B98470346002B02D04FF070
S2144026A0FF3353E007F10C0302331A4602214FF47E
S2144026B09270324B98470346002B02D04FF0FF33C0
S2144026C044E0FB7903F00203002B1CD007F10C0317
S2144026D01A4602214FF4EC70284B98470346002BCD
S2144026E002D04FF0FF3331E007F10C0302331A46B5
S2144026F002214FF49470214B98470346002B02D09A
S2144027004FF0FF3322E0FB7903F00403002B1CD08C
S21440271007F10C031A4602214FF4EE70174B984708
S2144027200346002B02D04FF0FF330FE007F10C03B7
S21440273002331A4602214FF49670104B98470346D0
S214402740002B02D04FF0FF3300E000231846183726
S214402750BD4680BD356040004D62400000004843A5
S214402760A1144000E560400071644000000040460F
S2144027700000C045000040450000C044C91C400061
S21440278080B584B000AF0346FB710023FB73FB7932
S21440279003F00103002B04D0FB7B43F03003DBB295
S2144027A0FB73FB7903F00203002B04D0FB7B43F062
S2144027B00C03DBB2FB73FB7903F00403002B04D05D
S2144027C0FB7B43F00303DBB2FB7307F10F031A46B0
S2144027D001214FF4A470034B984703461846103720
S2144027E0BD4680BDC91C400080B584B000AF0346DE
S2144027F0FB71FB79002B02D10123FB7104E0FB79CE
S214402800042B01D90423FB71FB79013BDBB2FB733C
S21440281007F10F031A46012140F24F10034B984729
S214402820034618461037BD4680BD00BFC91C400051
S21440283080B584B000AF0346FB80FB880C4AA2FB01
S21440284003239B08FB81FB891B0A9BB2DBB23B73CD
S214402850FB89DBB27B7307F10C031A4602214FF467
S214402860EF70044B9847034618461037BD4680BD68
S214402870CDCCCCCCC91C400080B584B000AF03465C
S214402880FB80FB880C4AA2FB03239B08FB81FB8949
S2144028901B0A9BB2DBB23B73FB89DBB27B7307F14F
S2144028A00C031A4602214FF4ED70044B984703463A
S2144028B018461037BD4680BDCDCCCCCCC91C400098
S2144028C080B584B000AF78600B467B807B68134A47
S2144028D082FB03129211DB17D31A7A8802FB03F3AA
S2144028E0FB60FB681B16DBB23B72FB681B14DBB25B
S2144028F07B72FB681B12DBB2BB72FB68DBB2FB72FF
S21440290007F108031A4604214FF4AE70044B98476B
S214402910034618461037BD4680BD00BFD34D6210F3
S214402920C91C400080B584B000AF0346FB80FB88DE
S2144029300C4AA2FB03239B08FB80FB881B0A9BB226
S214402940DBB23B73FB88DBB27B7307F10C031A46A2
S21440295002214FF4AD70044B984703461846103793
S214402960BD4680BDCDCCCCCCC91C400080B584B023
S21440297000AF0346FB80FB880C4AA2FB03239B0860
S214402980FB80FB881B0A9BB2DBB23B73FB88DBB247
S2144029907B7307F10C031A4602214FF4AC70044BCC
S2144029A09847034618461037BD4680BDCDCCCCCCA4
S2144029B0C91C400080B586B000AF0346FB800223AA
S2144029C03B73CA237B73E323BB730923FB7307F173
S2144029D00C031A4604216820884B9847A3233B7370
S2144029E0FB8803F04003002B06D0C0237B73C8232C
S2144029F0BB73C223FB7305E0A3237B73A323BB7384
S214402A00A323FB73FB8803F4C073002B06D0C423B8
S214402A103B74CC237B74C623BB7405E0A3233B7472
S214402A20A3237B74A323BB74A323FB74A3233B750C
S214402A30A3237B7507F10C031A460A2140F6A7200C
S214402A406E4B9847FB8803F00303002B02D02023ED
S214402A503B7301E0D8233B7307F10C031A46012170
S214402A6040F6B620654B9847FB8803F02003002BC2
S214402A7003D00120624B984702E00020604B984705
S214402A80FB8803F4C073002B1DD0FB8803F48073CF
S214402A90002B08D0B2233B738B237B73B623BB73C8
S214402AA09B23FB7307E0B0233B7380237B73B423E5
S214402AB0BB739023FB7307F10C031A46042140F6C0
S214402AC0A2204E4B9847FB8803F00103002B25D0ED
S214402AD0F8233B7307F10C031A4601214FF40B60B1
S214402AE0464B9847FA210720464B98470720464BC7
S214402AF098470120454B98476420454B98474FF4EC
S214402B00FA70444B9847C8214348444B984728207E
S214402B10434B98470A20434B984709E0D8233B73DA
S214402B2007F10C031A4601214FF40B60334B9847CC
S214402B30FB8803F00203002B02D0D9233B7301E04D
S214402B40D8233B7307F10C031A46012140F23D702F
S214402B502A4B9847FB8803F00403002B03D0012040
S214402B60314B984702E000202F4B9847FB8803F0F4
S214402B701003002B03D001202C4B984702E0002086
S214402B802A4B9847FB8843F008039AB2284B5A8151
S214402B90284B9847264B00229A73FB8803F0400345
S214402BA0002B05D0224B9B7B0633DAB2204B9A7320
S214402BB0FB8803F4C073002B05D01D4B9B7B06336C
S214402BC0DAB21B4B9A73FB8803F01403002B05D034
S214402BD0174B9B7B1033DAB2154B9A73FB8803F086
S214402BE00303002B05D0124B9B7B0433DAB2104B09
S214402BF09A73002318461837BD4680BDC91C40004E
S214402C00392C40000525400081274000E927400038
S214402C10312840007928400009E3CA02C128400014
S214402C20252940006D294000A52C4000012D40007C
S214402C30A40400208111400080B588B000AF034650
S214402C40FB71FB79002B11D0134A07F1140310686F
S214402C50516803C3127A1A7007F114031A46092101
S214402C604FF497600D4B9847034610E00C4A07F127
S214402C7008031068516803C3127A1A7007F10803F4
S214402C801A4609214FF49760044B98470346184666
S214402C902037BD4680BD00BFA8764000C91C400016
S214402CA0B476400080B584B000AF0346FB71FB7934
S214402CB0002B08D0C0233B73C2237B73C423BB7353
S214402CC0C623FB7306E007F10C0304228B2118464B
S214402CD0084B984707F10C031A46042140F6982003
S214402CE0054B9847054B9847034618461037BD4650
S214402CF080BD00BF95664000C91C40008111400061
S214402D0080B584B000AF0346FB71FB79002B08D03A
S214402D1020233B7328237B733023BB733823FB73FA
S214402D2006E007F10C030422A3211846084B9847F7
S214402D3007F10C031A46042140F69E20054B98479F
S214402D40054B9847034618461037BD4680BD00BF22
S214402D5095664000C91C40008111400080B582B095
S214402D6000AF0346FB71FB791846054B9847002297
S214402D7000211020034B984700BF0837BD4680BD52
S214402D80253C40008D3C400080B584B000AF0346F3
S214402D90FB71FB791846064B98470B211020054BD4
S214402DA098470346FB81FB8918461037BD4680BDD1
S214402DB0253C4000153D400080B400AF824A824B1F
S214402DC01B6843F480531360804A804B1B6843F073
S214402DD0004313607E4A7E4B1B6843F00403136037
S214402DE07B4A7B4B1B6843F400731360784A784BEE
S214402DF01B6823F480731360754A754B1B6823F475
S214402E0080631360734B00221A60734B64221A600F
S214402E10724A724B1B6843F400131360704B4FF4B6
S214402E2000121A606F4A6F4B1B6843F4805313605E
S214402E306D4A6D4B1B6843F4805313606B4A6B4B73
S214402E401B6843F480531360694A694B1B6843F41C
S214402E5080031360674A674B1B6843F48003136024
S214402E60654A654B1B6843F480031360634A634BB3
S214402E701B6843F004031360604A604B1B6843F4CE
S214402E80007313605D4A5D4B1B6823F480731360C8
S214402E905A4A5A4B1B6823F480631360584B0022EF
S214402EA01A60584B64221A604C4A4C4B1B6843F4D9
S214402EB0801313604A4B4FF480121A604C4A4C4BB6
S214402EC01B6843F4002313604A4A4A4B1B6843F48A
S214402ED0002313604C4A4C4B1B6843F0004313607E
S214402EE04A4A4A4B1B6843F000431360484A484BE3
S214402EF01B6843F0004313603F4A3F4B1B6843F454
S214402F0000231360434A434B1B6843F0040313609B
S214402F10404A404B1B6843F4007313603D4A3D4BA8
S214402F201B6823F4807313603A4A3A4B1B6823F4B9
S214402F3080631360384B00221A60384B64221A6054
S214402F40264A264B1B6843F400731360244B4FF409
S214402F5000721A602D4A2D4B1B6843F08043136065
S214402F602B4A2B4B1B6843F080431360264A264B64
S214402F701B6843F000531360244A244B1B6843F0FD
S214402F8000531360224A224B1B6843F000531360E1
S214402F901D4A1D4B1B6843F080431360204A204B5C
S214402FA01B6843F0020313601D4A1D4B1B6843F029
S214402FB0040313601A4A1A4B1B6843F00803136055
S214402FC000BFBD4680BC704714030E4010040E4040
S214402FD060020240640202406802024004120E4050
S214402FE070120E4000100E4010100E4034100E406E
S214402FF000120E4010120E4034120E4040020240A4
S2144030004402024048020240340E0E40000E0E407B
S214403010100E0E40200202402402024028020240C7
S2144030200400024000000000F0B587B000AF7860B2
S2144030300B46FB7005E0A44BA449786898470346C6
S2144030407B60A34BA349786898470346002BF2D190
S21440305005E0A14B9D497868984703467B609F4BA7
S2144030609F49786898470346002BF2D1FB78642B3B
S21440307001D96423FB709B4B786898479A4C8AA387
S214403080D3E90023A04703460C4618462146974CF2
S2144030904FF00002964BA04703460C461946224680
S2144030A0944B0846114698470346BB60FA78924BC5
S2144030B01046984705460E468A4BB86898470246DB
S2144030C00B468E4C7AA1D1E90001A04703460C4638
S2144030D0184621468A4B984702460B46824C28465D
S2144030E03146A04703460C4619462246814B0846C1
S2144030F01146984703467B61FA787F4B10469847BF
S21440310005460E46774BB868984702460B467B4CBA
S21440311069A1D1E90001A04703460C46184621465E
S214403120774B984702460B466F4C28463146A04799
S21440313003460C46194622466E4B084611469847AB
S21440314003463B61FA786C4B1046984705460E4658
S214403150644BB868984702460B46684C58A1D1E97C
S2144031600001A04703460C4618462146644B984744
S21440317002460B465C4C28463146A04703460C4662
S214403180194622465B4B0846114698470346FB6065
S2144031904F4B4FF00001786998470346002B0CD000
S2144031A0584A584B1B6843F480031360564A564BA4
S2144031B01B6843F48053136024E0544B4FF00001E7
S2144031C0786998470346002B0CD04E4A4D4B1B68F7
S2144031D043F4800313604E4A4D4B1B6843F48053C0
S2144031E013600FE07B6983F000437B61494A494B9B
S2144031F01B6843F480031360454A454B1B6843F401
S21440320080531360324B4FF00001386998470346AD
S214403210002B0CD0404A404B1B6843F000431360E1
S2144032203C4A3C4B1B6843F40023136024E0374B76
S2144032304FF00001386998470346002B0CD0364AB9
S214403240354B1B6843F0004313602E4A2D4B1B68DA
S21440325043F4002313600FE03B6983F000433B6177
S2144032602E4A2E4B1B6843F000431360254A254BDD
S2144032701B6843F400231360154B4FF00001F868B9
S21440328098470346002B4BD0234A234B1B6843F0FA
S21440329000531360214A214B1B6843F08043136060
S2144032A063E000BFAFF30080182D4454FB21094073
S2144032B0D221337F7CD9124065732D3852C1E03F0E
S2144032C03FD038C6A6F10440D15E40000000B4436B
S2144032D05D64400000003443D55E400021644000F9
S2144032E0000034C3FD574000A5584000F95A40003E
S2144032F000806640295E4000D95740003D5540005A
S214403300E141400034120E4030100E400D64400043
S21440331034100E4030120E40340E0E40300E0E402A
S2144033201D4B4FF00001F86898470346002B0CD021
S2144033301A4A1A4B1B6843F000531360174A174B40
S2144033401B6843F0804313600FE0FB6883F0004344
S214403350FB60134A124B1B6843F0005313600F4A3E
S2144033600E4B1B6843F0804313600E4C0E4BF868C0
S2144033709847034623600D4C0B4B386998470346E5
S21440338023600B4C084B786998470346236000BF80
S2144033901C37BD46F0BD00BF0D644000340E0E40E5
S2144033A0300E0E403002024071644000500202402F
S2144033B07002024080B483B000AF03460A46FB71F9
S2144033C01346BB71FB79002B24D12D4A2C4B1B682E
S2144033D043F4800313602B4A2A4B1B6843F4805304
S2144033E01360294A284B1B6843F000431360274A62
S2144033F0264B1B6843F400231360234A224B1B686A
S21440340043F000531360224A214B1B6843F080432D
S214403410136026E0FB79012B23D11C4A1B4B1B680B
S21440342043F4800313601B4A1A4B1B6843F48053D3
S2144034301360174A164B1B6843F000431360104A4C
S2144034400F4B1B6843F400231360114A104B1B6854
S21440345043F0005313600C4A0B4B1B6843F0804309
S21440346013600D4ABB7913600C4ABB7913600C4A53
S214403470BB79136000BF0C37BD4680BC704700BFA9
S21440348030120E4034100E40300E0E4034120E40B5
S214403490340E0E4030100E403002024050020240C1
S2144034A07002024090B585B000AF4FF00003FB605D
S2144034B0F9203D4B984703467B81F8203A4B984786
S2144034C003463B813B89B3F5007F4AD97B89B3F5F8
S2144034D0007F46D93B89354AA2FB0323DB0B9BB2D0
S2144034E01A46642303FB02F2314B104698470346C4
S2144034F07B607B892D4AA2FB0323DB0B9BB21A46DB
S214403500642303FB02F22A4B1046984703463B606F
S214403510284B29497868984703461C46274B396804
S2144035207868984703461A46254B114620469847E2
S21440353003461A46234B24491046984703461A46E4
S2144035401E4B1146104698470346FB601C4B4FF0F7
S2144035508041F86898470346322118461B4B9847E7
S2144035601EE07B89B3F5805F03D83B89B3F5805F67
S21440357002D9174B984713E03A897B89D31A9F2B79
S21440358004DD1E210020134B984709E07A893B89C9
S214403590D31A9F2B04DD1E2101200E4B9847FFE7D0
S2144035A000BF1437BD4690BD892D40000180008085
S2144035B03D604000E56040000000C842D55E4000E7
S2144035C04D624000D15E4000000048422930400035
S2144035D0D9354000B533400080B400AF134A134B92
S2144035E01B6843F480531360114A114B1B6843F425
S2144035F0800313600E4A0E4B1B6843F4002313608F
S2144036000C4A0C4B1B6843F000431360094A094BB5
S2144036101B6843F080431360064A064B1B6843F022
S2144036200053136000BFBD4680BC704734100E4048
S21440363034120E40340E0E4080B400AF2B4A2B4B53
S2144036401B6843F4001313602949294B1A68294B19
S21440365013430B60264A264B1B6823F00103136076
S214403660254A254B1B6843F080031360234A234BAF
S2144036701B6843F480531360204A204B1B6843F476
S214403680005313601D4A1D4B1B6843F48043136070
S2144036901B4A1B4B1B6843F480431360194A194B63
S2144036A01B6843F480431360134A134B1B6843F074
S2144036B001031360144A144B1B6843F00103136064
S2144036C0114A114B1B6823F0020313600E4A0E4B3F
S2144036D01B6843F4502313600C490C4B1A680C4B80
S2144036E013430B6000BFBD4680BC704710040E40BD
S2144036F0E48000400049505300800040040E0E40D5
S21440370000100E4010100E400480004034800040F0
S21440371001F0001780B584B000AF0023FB600020A6
S2144037202F4B98470246FB681344FB6079202D4B8D
S21440373098470246FB681344FB60C8202A4B9847CC
S2144037400246FB681344FB606420284B98470246B9
S214403750FB681344FB6007F108031846244B984760
S2144037600246FB681344FB60BB1D1846214B984736
S2144037700246FB681344FB6007F10B0318461E4BDA
S21440378098470246FB681344FB601C4B984702462A
S214403790FB681344FB601A481A4B98470346184682
S2144037A0194B98470246FB681344FB601020174BA2
S2144037B098470246FB681344FB60C820144B984762
S2144037C00246FB681344FB600120124B98470246B2
S2144037D0FB681344FB60FB6818461037BD4680BD47
S2144037E0810E4000D9184000B9164000A917400085
S2144037F08916400091134000A114400071224000F9
S214403800380000201938400095224000B529400075
S2144038106D244000291F400080B584B000AF78601A
S2144038207868114B98470346FB817B6803331846FC
S2144038300D4B98470346DB001AB2B7F90E301343D8
S2144038401BB2FB817B6806331846074B98470346F6
S2144038509B011AB2B7F90E3013431BB2FB81FB89AA
S21440386018461037BD4680BD6D38400080B485B0E0
S21440387000AF78607B6893F90030002B02DD0023B0
S214403880FB812DE07B6893F90030002B02DA04239D
S214403890FB8125E07B68013393F90030002B02DD85
S2144038A00123FB811CE07B68013393F90030002B39
S2144038B002DA0523FB8113E07B68023393F900307C
S2144038C0002B02DD0223FB810AE07B68023393F97A
S2144038D00030002B02DA0623FB8101E00723FB8140
S2144038E0FB8918461437BD4680BC704780B485B007
S2144038F000AF7860084B1B68FB6000BFFA687B68C7
S2144039001A44054B1B689A42F8D8002318461437C9
S214403910BD4680BC704700BFB404002080B485B06C
S21440392000AF3B600346FB710B46BB7113467B7191
S214403930244A244B1B6843F024031360224AFB7935
S2144039401B0403F4FE0343F4807313601F4ABB79E1
S21440395013607B79012B0ED11D4A3B681B781360A0
S214403960184B02221A6000BF1A4B1B6803F0040370
S214403970002BF9D019E00023FB730FE01449FB7BC2
S2144039803A6813441B780B6000BF124B1B6803F069
S2144039900403002BF9D0FB7B0133FB73FA7B7B7966
S2144039A09A42EBD3074B02221A6000BF094B1B68B2
S2144039B003F00103002BF9D0002318461437BD4608
S2144039C080BC704700000440040004400C000440E3
S2144039D0340004402000044080B485B000AF3B6013
S2144039E00346FB710B46BB7113467B712D4A2D4B2C
S2144039F01B6843F0240313602B4AFB791B0403F433
S214403A00FE0343F488531360284ABB7913607B79DE
S214403A10012B17D1234B03221A6000BF244B1B688F
S214403A2003F00203002BF9D0224B1B68DAB23B6846
S214403A301A7000BF1E4B1B6803F00103002BF9D021
S214403A4000232AE0174B01221A600023FB7318E07C
S214403A5000BF174B1B6803F00203002BF9D0FB7B1B
S214403A603A681344134A1268D2B21A70FA7B7B79CA
S214403A70023B9A4202D10B4B02221A60FB7B013377
S214403A80FB73FA7B7B799A42E2D300BF084B1B68F4
S214403A9003F00103002BF9D0002318461437BD4627
S214403AA080BC704700000440040004400C00044002
S214403AB0200004403000044080B400AF0C4B1B682C
S214403AC003F01003002B0FD00A4B1B680133094A42
S214403AD01360094B1B685A1D064B1B689A4203D855
S214403AE0044B1B68044A136000BFBD4680BC704749
S214403AF020000140B4040020B804002080B582B005
S214403B0000AF0346FB71FB7918460F4B98470022DF
S214403B10802139200D4B9847FF22822139200B4BBC
S214403B20984708228E213920084B984720228F211B
S214403B303920064B9847052280213920034B984769
S214403B4000BF0837BD4680BD253C40008D3C400048
S214403B5080B485B000AF0346FB71114AFB79012162
S214403B6001FA03F313600F4A0E4B1B6843F002033F
S214403B70136000BF0C4B1B6803F08073002BF9D01A
S214403B800A4AFB79012101FA03F31360084B1B68CC
S214403B90FB81FB8918461437BD4680BC704700BF82
S214403BA01080034000800340308003401480034070
S214403BB02080034080B483B000AF154A144B1B6886
S214403BC043F400231360134A124B1B6843F0080368
S214403BD01360104A0F4B1B6843F0100313600E4BE4
S214403BE080221A600D4A0D4B1B6843F48E3343F017
S214403BF03F031360084A084B1B6843F024031360D6
S214403C00074B1B68FB7100BF0C37BD4680BC704736
S214403C1010040E40040E0E4000800140108001400B
S214403C203080014080B483B000AF0346FB71134A36
S214403C30124B1B6843F024031360114B4FF4C00231
S214403C401A60104AFB7913600C4A0C4B1B6843F011
S214403C500203136000BF0C4B1B6803F00403002BE9
S214403C60F9D000BF084B1B6803F00103002BF9D0C6
S214403C7000BF0C37BD4680BC704700BF0080014087
S214403C8004800140348001402080014080B483B0ED
S214403C9000AF0346FB710B46BB7113467B71184A57
S214403CA0174B1B6843F024031360164AFB791B042A
S214403CB003F4FE031360134A124B1B6843F48073ED
S214403CC01360114ABB791360104A7B7913600C4A23
S214403CD00B4B1B6843F00203136000BF0C4B1B6882
S214403CE003F00403002BF9D000BF094B1B6803F018
S214403CF00103002BF9D000BF0C37BD4680BC70478F
S214403D0000800140048001400C8001403480014026
S214403D102080014080B485B000AF03460A46FB7160
S214403D201346BB71264A264B1B6843F02403136098
S214403D30244AFB791B0403F4FE031360214A214BFB
S214403D401B6843F4807313601E4A1E4B1B6843F483
S214403D50805313601C4ABB791360194B01221A60CA
S214403D6000BF1A4B1B6803F00203002BF9D0184B18
S214403D701B68FB73124A124B1B6843F00203136026
S214403D8000BF124B1B6803F00203002BF9D0104B08
S214403D901B68BB7300BF0D4B1B6803F00103002B71
S214403DA0F9D0BB7B1B021AB2FB7B1BB213431BB280
S214403DB0BB81BB8918461437BD4680BC704700BFE0
S214403DC000800140048001400C800140208001407A
S214403DD03080014080B582B000AF164B7B60164BFA
S214403DE03B607A683B689A420CD007E03B681A1DF5
S214403DF03A607A68111D796012681A603B680F4A0B
S214403E009342F3D30E4B3B6004E03B681A1D3A6086
S214403E1000221A603B680B4A9342F6D30A4B7B60FB
S214403E200A4A7B6823F07F039360094B9847094B07
S214403E309847FEE7D8784000000000207004002035
S214403E4070040020980F00200000400000ED00E0C5
S214403E50B1644000913E400080B400AFFEE70000F1
S214403E6080B483B000AF0346FB71084997F907302A
S214403E705B09FA7902F01F02012000FA02F241F8CB
S214403E80232000BF0C37BD4680BC704700E100E0F1
S214403E9080B592B000AF1B4B98474FF000037B6253
S214403EA04FF00003BB62184B1B78032B0AD801A2C5
S214403EB052F823F0C53E4000C53E4000C53E400097
S214403EC0C53E4000114B984707F13C031846104B3F
S214403ED098470346002BE6D107F13C0393E80700DA
S214403EE00C4B984707F1300318460B4B9847034650
S214403EF0002BD8D107F1300393E80700074B9847CB
S214403F00D1E700BF213F400041000020A5344000DB
S214403F10A10A4000FD014000D50C40005D01400074
S214403F2080B500AF834B4FF400421A60824B834A01
S214403F301A60834B834A1A60834A834B1B6843F458
S214403F405C1343F4A05313607F4A7F4B1B6843F4D3
S214403F505C1343F00103136000BF7C4B1B6803F007
S214403F600103002BF9D0784A774B1B6843F09B73CC
S214403F7043F48033136000BF744B1B6803F48033F4
S214403F80002BF9D0704B724A1A607249714B1A680E
S214403F90714B13430B6000BF6C4B1B6803F002036E
S214403FA0002BF9D06D4B02221A6000BF674B1B688E
S214403FB003F00803002BF9D0694A694B1B6843F4A9
S214403FC000631360664A664B1B6843F48053136075
S214403FD0634A634B1B6843F400531360614B624A69
S214403FE01A60624B604A1A60614B5F4A1A60614BC6
S214403FF09847614B9847614B9847614B9847614B50
S2144040009847614A604B1B6843F0C05313605F4A51
S2144040105E4B1B6843F4807313605D4A5C4B1B68C1
S21440402043F0C05313605B4A5A4B1B6843F480739B
S2144040301360594A584B1B6843F080531360574AE5
S214404040564B1B6843F480731360534A524B1B68AD
S21440405043F000631360524B524A1A60404A404B4A
S2144040601B6843F0005313604F494F4B1A684F4B41
S21440407013430B603A4A3A4B1B6843F48003136081
S2144040804B4A4B4B1B6843F003031360494A494B6A
S2144040901B6843F003031360474B80221A60474A6D
S2144040A0464B1B6843F48E3343F03F031360424A4B
S2144040B0414B1B6843F024031360294A284B1B6876
S2144040C043F40003136017203D4B98473D4A3D4B51
S2144040D01B6843F4404343F0020313603A4A3A4BAA
S2144040E01B6843F010031360384B40F635421A60A5
S2144040F0374A374B1B6843F005031360F820354BAF
S2144041009847F920334B9847FA20334B9847FF207F
S214404110314B9847FE20304B9847FD202E4B984712
S214404120FC202D4B9847FB202B4B98472B4B984712
S21440413000BF80BD54140E40000A0E400005000427
S214404140E4040E4000434D5020040E4068040E40E8
S2144041500114370128040E40033F182030040E4057
S21440416010040E40E40E0E40004F4950E4100E403E
S214404170E4120E40B92D4000393640007503400029
S21440418015374000B53B4000000E0E4000120E4072
S214404190100E0E4010120E40340E0E4034120E40DA
S2144041A0E480034000434441048003400031032040
S2144041B004100E4070100E400000044010000440F2
S2144041C0613E400004000140240001401C000140C4
S2144041D0000001405D2D4000FD3A4000590D400072
S2144041E030B5224A21F00043934287B01BDD204A77
S2144041F0934205DD02460B4601F0A0F907B030BDFC
S21440420002AA00F039F800F00303012B1AD0022B63
S2144042100FD01BB30124DDE90423DDE9020100943D
S21440422000F0BAFFEAE70022002300F049FA07B0A0
S21440423030BDDDE90423DDE9020100F041FA01F179
S2144042400041DBE7DDE904450093DDE90201224653
S2144042502B4600F0A1FF01F10041CFE7DDE9042342
S214404260DDE9020100F02CFAC8E700BFFB21E93F78
S214404270FFFFEF7F000000002DE9F04F9A4E21F03F
S2144042800047B74291B040F38E809246974A974295
S2144042900C4626DC00298AA3D3E9002340F3B481E8
S2144042A001F04CF9924B9F4204460D4600F0908038
S2144042B085A3D3E9002301F041F902460B46CAE93B
S2144042C000232046294601F039F97FA3D3E900238D
S2144042D001F034F90125CAE90201284611B0BDE8CB
S2144042E0F08F844A974240F39080834A974265DC39
S2144042F03D15A5F21645A7EB055319461F4606463B
S21440430001F06AFD01F068FA8046894602460B468F
S21440431030463946CDE90A8901F010F90022774B3C
S21440432001F0C0FA8946804601F056FD01F054FA85
S21440433002460B4606460F4640464946CDE90C67C0
S21440434001F0FCF800226D4B01F0ACFA002200238D
S214404350CDE90E0101F00EFD002800F07381002328
S21440436030463946002201F005FD002814BF0123DF
S2144043700223634A019202212A4600910AA8514626
S21440438000F0C2FA002C054614DADAF80420DAF80F
S2144043900C3002F1004203F100434542CAF80420C3
S2144043A0CAF80C3006E0C2E9000100250024C2E944
S2144043B002450025284611B0BDE8F08F02460B4660
S2144043C001F0BCF80025CAE90201CAE90001F1E79C
S2144043D03FA3D3E9002301F0B1F83FA3D3E900237C
S2144043E00D46044601F0AAF802460B46CAE90023E9
S2144043F02946204601F0A2F837A3D3E9002301F06E
S2144044009DF80125CAE90201D4E700F07BFF34A3FA
S214404410D3E900238046894601F044FA0022394B0E
S21440442001F08EF801F0D8FC054601F0D5F924A33A
S214404430D3E90023CDE9040101F034FA02460B46E5
S2144044404046494601F07AF81FA3D3E90023804648
S2144044508946DDE9040101F025FA1F2DCDE9020168
S21440446054DC294B6A1E53F822309F424ED00246F7
S2144044700B464046494601F061F802460B46CAE9FB
S214404480002383460E465A4633464046494601F088
S21440449055F8DDE9022301F051F8002C02460B46A0
S2144044A0CAE9022386DA5B4606F1004601F100417E
S2144044B08AE84800CAF80C10CAF808006D4279E746
S2144044C000004054FB21F93F3163621A61B4D03D8D
S2144044D00000601A61B4D03D7370032E8A19A33B66
S2144044E083C8C96D305FE43FFB21E93F7BD902407A
S2144044F0FB21F93FFB213941FFFFEF7F0000704170
S214404500587740000000E03FD8764000DDE90223BF
S2144045104046494601F012F83A15C1F30A53D31AF9
S214404520102B83460E460992CAE90001ABDD58A31C
S214404530D3E90023DDE9040101F0B4F906460F464D
S21440454002460B464046494600F0F8FFCDE90601D4
S21440455002460B464046494600F0F0FF32463B4690
S21440456000F0ECFF4CA3D3E9002306460F46DDE9F6
S214404570040101F097F932463B4600F0DFFFDDE9E3
S2144045800689CDE9020102460B464046494600F000
S214404590D5FF0B46C1F30A570E460999CF1B024674
S2144045A0312F8346CAE900236CDD3DA3D3E90023BF
S2144045B0DDE9040101F076F906460F4602460B4651
S2144045C040464946CDE9068900F0B8FF02460B460C
S2144045D080468946DDE9060100F0B0FF32463B469C
S2144045E000F0ACFF30A3D3E9002306460F46DDE9D2
S2144045F0040101F057F932463B4600F09FFF024661
S2144046000B46CDE9022334E700F09AFF2A4B9F423F
S21440461004460D4618D026A3D3E9002300F090FFA9
S21440462002460B46CAE900232946204600F086FF8C
S2144046301FA3D3E9002300F083FF4FF0FF35CAE9FC
S2144046400201B7E6032394E611A3D3E9002300F062
S21440465077FF11A3D3E900230D46044600F070FF10
S21440466002460B46CAE900232946204600F066FF6C
S21440467009A3D3E9002300F063FF4FF0FF35CAE9F2
S214404680020197E6DDE90689FDE600BFAFF300804C
S2144046900000601A61B4D03D7370032E8A19A33BA4
S2144046A00000002E8A19A33BC14920259A837B39F6
S2144046B03163621A61B4D03DFB21F93F000000002F
S2144046C02DE9F04F21F00046B6F1795F85B00C46F3
S2144046D092469B4605466BDA01F07EFB002800F0CA
S2144046E0E8802A4623462846214601F0DBF874A394
S2144046F0D3E900238046894601F0D4F872A3D3E973
S214404700002300F01DFF42464B4601F0CBF870A355
S214404710D3E9002300F012FF42464B4601F0C2F8B0
S2144047206DA3D3E9002300F00BFF42464B4601F051
S214404730B9F86BA3D3E9002300F000FF42464B468E
S21440474001F0B0F868A3D3E9002300F0F9FE424632
S2144047504B4601F0A7F8CDE900010022644B4046E5
S214404760494601F09FF8DDE9002306460F464046DD
S214404770494601F097F85246804689465B462846A9
S214404780214601F08FF802460B464046494600F067
S214404790D5FE02460B463046394600F0CFFE02466E
S2144047A00B460020534900F0C9FE05B0BDE8F08F27
S2144047B002460B4601F076F841A3D3E90023804633
S2144047C0894601F06FF840A3D3E9002300F0B8FE15
S2144047D042464B4601F066F83DA3D3E9002300F07D
S2144047E0ADFE42464B4601F05DF83BA3D3E90023BD
S2144047F000F0A6FE42464B4601F054F838A3D3E9F3
S214404800002300F09BFE42464B4601F04BF836A391
S214404810D3E9002300F094FE4B46424601F042F8AE
S214404820354B9E42CDE9000197DD344B9E424FF01A
S214404830000238DCA6F5001300202E4916461F4617
S21440484000F07CFECDE902010022294B4046494655
S21440485001F028F832463B4600F070FEDDE90023C2
S21440486006460F464046494601F01CF852468046EA
S21440487089465B462846214601F014F802460B4618
S2144048804046494600F05AFE02460B4630463946F8
S21440489000F054FE02460B46DDE9020100F04EFEF3
S2144048A005B0BDE8F08F164B164FCDE90223002623
S2144048B0CAE71049002005B0BDE8F08FAFF300808E
S2144048C0D43888BEE9FAA8BDC4B1B4BD9EEE213E38
S2144048D0AD529C804F7E923E9015CB19A001FA3E79
S2144048E07751C1166CC1563F4C5555555555A53F49
S2144048F00000E03F0000F03F3233D33F0000E93F86
S2144049000000E73F0000D23F2DE9F04FADF5197D9E
S2144049109C4CA29E9C4D54F8264005942646D41E98
S21440492085FB0475E417C4EBA50424EAE4741D462D
S2144049300893631CA3EB8303013D02EBC30304937C
S2144049402B4609940295651BF418039006911AD4D9
S2144049502C4401340DF1780800260027DDF88C92AF
S21440496008E059F8250000F037FF0135A542E8E990
S214404970020108D0002DF4DA013530463946A5420A
S214404980E8E90201F6D1059B002B2EDB089B4FEA97
S214404990C309039BA9F10808984420AB9944059B9A
S2144049A070AA02EBC30B0DF5DC7A029B002BC0F21B
S2144049B00F83039B4D46A3F108040026002775E9A4
S2144049C00223F4E9020100F06DFF02460B46304632
S2144049D0394600F0B5FD444506460F46EFD1EAE9B4
S2144049E00267DA4509F10809DFD10598089A009070
S2144049F000F18043013B9B000CAC191F234402F19D
S214404A0000520B93039B013A21440A9103EBC20BDD
S214404A10009A98A901EBC203002A53E92845134699
S214404A202BDD01EBC308A8F1A8080DF12C090DF504
S214404A30DC7A0022554B2046294600F033FF01F031
S214404A40CBF900F0C9FE0022514B06460F4600F057
S214404A5029FF02460B462046294600F06FFD01F02E
S214404A60BBF978E8022349F8040F3946304600F08F
S214404A7067FDD04504460D46DBD1DDF81090204654
S214404A8029464A4600F0D0FC00224FF07F530446A9
S214404A900D4600F007FF00F03BFC00223D4B00F0C7
S214404AA001FF02460B462046294600F047FD0D46CC
S214404AB0044601F091F9804600F08EFE0B46024611
S214404AC02946204600F03AFD4B46002B06460F4648
S214404AD040F3F780009A0CA9013AC9F1180351F83F
S214404AE0225045FA03F101FA03F30CA8EB1A40F8FA
S214404AF02230C9F11705884443FA05F5002D63DDD9
S214404B00009B002B08F1010840F381820C9C002C8E
S214404B1000F01883012000230CAAC4F1807442F8E8
S214404B202340009A824219DD0CAA0CAC52F82010A1
S214404B306FF07F42511A44F8201000990233994290
S214404B400CDD1046009A0CA901EB830301EB8201B1
S214404B501A68821A43F8042B8B42F9D1049B002B27
S214404B601ADD049B012B4FF0010440F05882009B55
S214404B705A1E0CAB0CA953F82230C3F3160341F867
S214404B80223058E2A0784000ABAAAA2A0000703E25
S214404B900000704100002040022D15D132463B46B1
S214404BA00020974900F0CAFC06460F46049A9449EE
S214404BB0002000F039FC02460B463046394600F0ED
S214404BC0BDFC022506460F460022002330463946E5
S214404BD001F0D0F8002800F05282009A059B501E43
S214404BE083420FDC02F18043013B0CAA0B9C02EB94
S214404BF08303002253F80419A34242EA0102F9D182
S214404C00002A6FD1059B0CAA013B52F82330002B9B
S214404C1040F033820A9A012352F8041901330029DE
S214404C20FAD0009AD31802F1010A9A4507933DDC60
S214404C30009B0899099A0B4407990AEB0208994683
S214404C4020AB08F1804803EBC9098B18A39A08F1FA
S214404C50FF3802EB880870AA02EBCA0AA39A02EB56
S214404C608303009358F8040F00F0B6FD029B002B18
S214404C70E9E802011DDB039B4D46A3F1080400262C
S214404C80002775E90223F4E9020100F00BFE024614
S214404C900B463046394600F053FC5C4506460F4608
S214404CA0EFD1009B9845EAE80267DBD1079B00936B
S214404CB0AEE6009B002600279845EAE80267D1D179
S214404CC0F4E706D1009B0CAA013B52F82350ED15A1
S214404CD014E700224B4B01F06BF8002840F082812D
S214404CE0054671E70CA9029551F820300499CDF895
S214404CF01C8018390246009004916BB900F180433D
S214404D00013B0CA800EB830353F80409013A183919
S214404D100028F9D000920491049A3949002000F006
S214404D2083FB009B002B04460D46C0F20382DA004C
S214404D3070A901EB020B04920CAA02EB8306DFF883
S214404D40C8900BF1080704364FF0000856F8040DDB
S214404D5000F042FD22462B4600F0A4FD4B4667E994
S214404D60020142462046294600F09CFD0CAB9E427E
S214404D7004460D46EAD10DF5907ACDF80CA0DDF844
S214404D8014A04FF00009BAF1000FC0F23D81DFF8E1
S214404D907C805D4618A1D1E900010026002700244A
S214404DA003E04C4510DCF8E80201F5E8022300F089
S214404DB079FD02460B463046394600F0C1FB0134C9
S214404DC0A24506460F46ECDA039B03EBC903ABF15C
S214404DD0080BC3E900676EAB5B4509F10109D2D108
S214404DE0A29BDDF80CA0032B00F28B80DFE813F0CB
S214404DF0D10090009000100000000040FB21F93FD9
S214404E000000F03F0000E03F0000703E6878400041
S214404E10009B002B40F3A481049B0AEB0308D8E9CF
S214404E200067D34658E9029A32463B4648465146C2
S214404E3000F086FB04460D4602460B464846514661
S214404E4000F07CFB32463B4600F07AFBC8E90001A6
S214404E5068E90245C34526462F46E3D1009B012B11
S214404E60DA4640F37D81049B5B44D3E9006798466D
S214404E7099460DF5947B59E9023432461846214648
S214404E803B46CDE9000100F05BFB04460D4602467A
S214404E900B46DDE9000100F051FB32463B4600F090
S214404EA04FFBC9E9000169E90245CB4526462F4636
S214404EB0E1D1002308F108081D464CAC18462946A7
S214404EC078E9022300F03CFB444503460D46F5D105
S214404ED0029A002A00F02081DAF80440DAF80C2022
S214404EE0069FDAF80010DAF808003B6105F1004545
S214404EF004F1004402F100427D617C60FA60396052
S214404F00B860079B03F007000DF5197DBDE8F08FEC
S214404F10049C00260834544433463046194674E907
S214404F20022300F00DFB544506460B46F5D1029A87
S214404F3030461946002A00F0DA80069803F100440D
S214404F40324644600660DAE9000100F0F7FA0B46A4
S214404F500099002902460EDD012410461946FAE95A
S214404F60022300F0EDFA0B4600990134A1420246B6
S214404F70F3DA029909B103F100431946069B10463D
S214404F80C3E90201079B03F007000DF5197DBDE854
S214404F90F08F049C002208345444134610461946A9
S214404FA074E9022300F0CCFAA24502460B46F5D13E
S214404FB0029909B103F100431946069B1046C3E91E
S214404FC00001079B03F007000DF5197DBDE8F08F43
S214404FD000260027EAE90267DA4509F108097FF466
S214404FE0E4AC02E5009B002B08F10108C8BF02258F
S214404FF03FF78CAD32463B460020634900F09EFAB0
S214405000022506460F46DFE500260027DCE6049B21
S214405010002B26DD0024049B012B3FF4A8AD022B79
S21440502009D1009B5A1E0CAB0CA953F82230C3F38F
S214405030150341F82230022D7FF4C6AD32463B467A
S2144050400020514900F07AFA06460F46002C3FF4FD
S214405050BBADABE500990133994278D1049B002B58
S214405060D9DC022D7FF4B0AD32463B46002046499F
S21440507000F064FA06460F46A6E50123D1E5394618
S214405080049F02957A423046CDF81C8000F0CCF959
S21440509000223E4B04460D4600F08AFE002862D0B1
S2144050A000223B4B2046294600F0FCFB00F094FED5
S2144050B0064600F091FB0022344B00F0F3FB02461C
S2144050C00B462046294600F039FA00F085FE009946
S2144050D00B4601331A4600933B46183304930B465F
S2144050E00CA941F82300134641F8236014E6069BBA
S2144050F03246C3E900010B46DAE9000100F01EFA29
S2144051000B460099002902463FF726AF1946069BF4
S2144051101046C3E9020135E718462946DAE9002376
S214405120DAE90245069FC7E90401C7E90023C7E953
S2144051300245E6E6A29B032B3FF6E3AEDFE803F02C
S214405140211C1C0E009B012B88DD0CAA012352F863
S214405150044F002C3FF47EAF581CDDE40DF5907AEA
S21440516000231D46B4E62946204600F035FE009A48
S2144051700CA941F82200CFE5002633460DF5907A7B
S214405180D5E60022134613E70000F03F00007041CA
S2144051900000703E000000002DE9F04F21F0004670
S2144051A0B6F1795F85B00C4690469946054604DAD6
S2144051B000F012FE002800F085802A462346284646
S2144051C0214600F06FFB06460F4602460B46284631
S2144051D0214600F067FB3EA3D3E9002382468B4678
S2144051E03046394600F05EFB3BA3D3E9002300F08F
S2144051F0A5F932463B4600F055FB39A3D3E90023D8
S21440520000F09EF932463B4600F04CFB36A3D3E90D
S214405210002300F093F932463B4600F043FB34A3AC
S214405220D3E9002300F08CF90E9BCDE900019BB337
S2144052300022334B4046494600F034FBDDE900236C
S214405240CDE902015046594600F02CFB02460B467B
S214405250DDE9020100F072F932463B4600F022FBDF
S21440526042464B4600F06AF923A3D3E9002306469C
S2144052700F465046594600F015FB02460B46304650
S214405280394600F05DF902460B462846214600F0B6
S21440529055F905B0BDE8F08F02460B463046394614
S2144052A000F000FB14A3D3E9002300F047F9524670
S2144052B05B4600F0F7FA2A46234600F041F905B06F
S2144052C0BDE8F08F2846214605B0BDE8F08F00BF08
S2144052D07CD5CF5A3AD9E53DEB9C2B8AE6E55A3E3B
S2144052E07DFEB157E31DC73ED561C119A0012A3FD7
S2144052F0A6F810111111813F495555555555C53FD2
S2144053000000E03F21F00041704700BF0000000071
S214405310C1F30A522DE9F843A2F2FF36132E0B468C
S2144053200D460446884607461DDC002E40DB3C4AB8
S21440533042FA06F901EA09020243864618D036A325
S214405340D3E9002300F0FCF80022002300F03AFDE9
S21440535020B1002D42DB28EA090500273C462946B5
S2144053602046BDE8F883332E06DDB6F5806F2FD095
S21440537019462046BDE8F883A2F213424FF0FF39A3
S21440538029FA02F910EA090FF2D023A3D3E9002341
S21440539000F0D6F80022002300F014FD0028DDD0EF
S2144053A0002D21DB454627EA09073C462946D7E734
S2144053B019A3D3E9002300F0C3F80022002300F02D
S2144053C001FD0028CAD0002D19DB00273D46C5E761
S2144053D002460B4600F0B4F80446CAE74FF4801382
S2144053E043FA06F6B044B6E7142E10D00123C6F1B1
S2144053F0340603FA06F6371928BF9844D2E725F054
S2144054000042084B224318BF1D460027A6E705F179
S2144054100108C7E7AFF300809C7500883CE4377E00
S214405420FFFF0F000000F0BFF8B5C1F30A56044670
S2144054300D460B4617460EBB21F0004303438646F7
S21440544025D00022344B00F02DFA344A97420446C9
S2144054500D460B462ADBC1F30A56363E3E4440F222
S214405460FE72964228DC002E12DD23F0FF4323F422
S214405470E00343EA065520462946F8BD40F2FF724F
S2144054809642EBD102460B4600F05AF8F8BDF8BDFE
S21440549016F1350F1DDA4CF250339F4222462B460A
S2144054A025DC19A1D1E9000100F03CF816A3D3E9A8
S2144054B0002300F0F7F9F8BD22462B4614A1D1E9A7
S2144054C0000100F02FF812A3D3E9002300F0EAF918
S2144054D0F8BD23F0FF4323F4E003363643EA06558F
S2144054E02046294600220E4B00F0DCF9F8BD08A104
S2144054F0D1E9000100F016F805A3D3E9002300F037
S214405500D1F9F8BDAFF3008059F3F8C21F6EA5017C
S2144055109C7500883CE4377E00005043B03CFFFF5B
S2144055200000903C03F0004321F0004242EA0301B1
S214405530704700BF81F0004102E000BF83F00043A7
S21440554030B54FEA41044FEA430594EA050F08BFD9
S21440555090EA020F1FBF54EA000C55EA020C7FEA9D
S214405560645C7FEA655C00F0E2804FEA5454D4EB1A
S2144055705555B8BF6D420CDD2C4480EA020281EAE4
S214405580030382EA000083EA010180EA020281EA1C
S2144055900303362D88BF30BD11F0004F4FEA01316E
S2144055A04FF4801C4CEA113102D0404261EB41017D
S2144055B013F0004F4FEA03334CEA133302D0524203
S2144055C063EB430394EA050F00F0A780A4F10104BF
S2144055D0D5F1200E0DDB02FA0EFC22FA05F28018F9
S2144055E041F1000103FA0EF2801843FA05F35941DF
S2144055F00EE0A5F120050EF1200E012A03FA0EFC5E
S21440560028BF4CF0020C43FA05F3C01851EBE37187
S21440561001F0004507D54FF0000EDCF1000C7EEBA4
S21440562000006EEB0101B1F5801F1BD3B1F5001FE2
S2144056300CD349085FEA30004FEA3C0C04F1010401
S2144056404FEA445212F5800F80F09A80BCF1004F2A
S21440565008BF5FEA500C50F1000041EB045141EAAC
S214405660050130BD5FEA4C0C404141EB010111F4AD
S214405670801FA4F10104E9D191F0000F04BF014658
S2144056800020B1FA81F308BF2033A3F10B03B3F136
S21440569020020CDA0C3208DD02F1140CC2F10C02C6
S2144056A001FA0CF021FA02F10CE002F11402D8BF24
S2144056B0C2F1200C01FA02F120FA0CFCDCBF41EAF0
S2144056C00C019040E41AA2BF01EB0451294330BDBF
S2144056D06FEA04041F3C1CDA0C340EDC04F114049C
S2144056E0C4F1200220FA04F001FA02F340EA030073
S2144056F021FA04F345EA030130BDC4F10C04C4F1B9
S214405700200220FA02F001FA04F340EA0300294698
S21440571030BD21FA04F0294630BD94F0000F83F4E2
S214405720801306BF81F480110134013D4EE77FEAC5
S214405730645C18BF7FEA655C29D094EA050F08BF11
S21440574090EA020F05D054EA000C04BF19461046F2
S21440575030BD91EA030F1EBF0021002030BD5FEA36
S214405760545C05D14000494128BF41F0004130BD5E
S21440577014F580043CBF01F5801130BD01F00045B2
S21440578045F0FE4141F470014FF0000030BD7FEA25
S214405790645C1ABF194610467FEA655C1CBF0B4620
S2144057A0024650EA013406BF52EA033591EA030F37
S2144057B041F4002130BD00BF90F0000F04BF00212F
S2144057C0704730B54FF4806404F132044FF0000562
S2144057D04FF0000150E700BF90F0000F04BF0021DB
S2144057E0704730B54FF4806404F1320410F0004541
S2144057F048BF40424FF000013EE700BF42004FEA3C
S214405800E2014FEA31014FEA02701FBF12F07F43B8
S21440581093F07F4F81F06051704792F0000F14BFB5
S21440582093F07F4F704730B54FF4607401F00045F9
S21440583021F0004120E700BF50EA010208BF704750
S21440584030B54FF000050AE050EA010208BF704745
S21440585030B511F0004502D5404261EB41014FF4AE
S214405860806404F132045FEA915C3FF4DCAE4FF0B2
S21440587003025FEADC0C18BF03325FEADC0C18BF99
S214405880033202EBDC02C2F1200300FA03FC20FAEA
S21440589002F001FA03FE40EA0E0021FA02F1144437
S2144058A0C1E600BF70B54FF0FF0C4CF4E06C1CEA4C
S2144058B011541DBF1CEA135594EA0C0F95EA0C0FC1
S2144058C000F0DEF82C4481EA030621EA4C5123EA34
